{
    "contractName": "OpenAR",
    "abi": [
        {
            "anonymous": false,
            "inputs": [
                {
                    "indexed": true,
                    "internalType": "address",
                    "name": "owner",
                    "type": "address"
                },
                {
                    "indexed": true,
                    "internalType": "address",
                    "name": "approved",
                    "type": "address"
                },
                {
                    "indexed": true,
                    "internalType": "uint256",
                    "name": "tokenId",
                    "type": "uint256"
                }
            ],
            "name": "Approval",
            "type": "event"
        },
        {
            "anonymous": false,
            "inputs": [
                {
                    "indexed": true,
                    "internalType": "address",
                    "name": "owner",
                    "type": "address"
                },
                {
                    "indexed": true,
                    "internalType": "address",
                    "name": "operator",
                    "type": "address"
                },
                {
                    "indexed": false,
                    "internalType": "bool",
                    "name": "approved",
                    "type": "bool"
                }
            ],
            "name": "ApprovalForAll",
            "type": "event"
        },
        {
            "anonymous": false,
            "inputs": [
                {
                    "indexed": false,
                    "internalType": "string",
                    "name": "NftURI",
                    "type": "string"
                },
                {
                    "indexed": false,
                    "internalType": "uint256",
                    "name": "amount",
                    "type": "uint256"
                }
            ],
            "name": "NftPurchased",
            "type": "event"
        },
        {
            "anonymous": false,
            "inputs": [
                {
                    "indexed": true,
                    "internalType": "address",
                    "name": "from",
                    "type": "address"
                },
                {
                    "indexed": true,
                    "internalType": "address",
                    "name": "to",
                    "type": "address"
                },
                {
                    "indexed": true,
                    "internalType": "uint256",
                    "name": "tokenId",
                    "type": "uint256"
                }
            ],
            "name": "Transfer",
            "type": "event"
        },
        {
            "stateMutability": "nonpayable",
            "type": "fallback"
        },
        {
            "inputs": [
                {
                    "internalType": "address",
                    "name": "to",
                    "type": "address"
                },
                {
                    "internalType": "uint256",
                    "name": "tokenId",
                    "type": "uint256"
                }
            ],
            "name": "approve",
            "outputs": [],
            "stateMutability": "nonpayable",
            "type": "function"
        },
        {
            "inputs": [
                {
                    "internalType": "address",
                    "name": "owner",
                    "type": "address"
                }
            ],
            "name": "balanceOf",
            "outputs": [
                {
                    "internalType": "uint256",
                    "name": "",
                    "type": "uint256"
                }
            ],
            "stateMutability": "view",
            "type": "function",
            "constant": true
        },
        {
            "inputs": [
                {
                    "internalType": "uint256",
                    "name": "tokenId",
                    "type": "uint256"
                }
            ],
            "name": "burn",
            "outputs": [],
            "stateMutability": "nonpayable",
            "type": "function"
        },
        {
            "inputs": [
                {
                    "internalType": "uint256",
                    "name": "tokenId",
                    "type": "uint256"
                }
            ],
            "name": "getApproved",
            "outputs": [
                {
                    "internalType": "address",
                    "name": "",
                    "type": "address"
                }
            ],
            "stateMutability": "view",
            "type": "function",
            "constant": true
        },
        {
            "inputs": [
                {
                    "internalType": "address",
                    "name": "owner",
                    "type": "address"
                },
                {
                    "internalType": "address",
                    "name": "operator",
                    "type": "address"
                }
            ],
            "name": "isApprovedForAll",
            "outputs": [
                {
                    "internalType": "bool",
                    "name": "",
                    "type": "bool"
                }
            ],
            "stateMutability": "view",
            "type": "function",
            "constant": true
        },
        {
            "inputs": [],
            "name": "name",
            "outputs": [
                {
                    "internalType": "string",
                    "name": "",
                    "type": "string"
                }
            ],
            "stateMutability": "view",
            "type": "function",
            "constant": true
        },
        {
            "inputs": [
                {
                    "internalType": "uint256",
                    "name": "tokenId",
                    "type": "uint256"
                }
            ],
            "name": "ownerOf",
            "outputs": [
                {
                    "internalType": "address",
                    "name": "",
                    "type": "address"
                }
            ],
            "stateMutability": "view",
            "type": "function",
            "constant": true
        },
        {
            "inputs": [
                {
                    "internalType": "address",
                    "name": "from",
                    "type": "address"
                },
                {
                    "internalType": "address",
                    "name": "to",
                    "type": "address"
                },
                {
                    "internalType": "uint256",
                    "name": "tokenId",
                    "type": "uint256"
                }
            ],
            "name": "safeTransferFrom",
            "outputs": [],
            "stateMutability": "nonpayable",
            "type": "function"
        },
        {
            "inputs": [
                {
                    "internalType": "address",
                    "name": "from",
                    "type": "address"
                },
                {
                    "internalType": "address",
                    "name": "to",
                    "type": "address"
                },
                {
                    "internalType": "uint256",
                    "name": "tokenId",
                    "type": "uint256"
                },
                {
                    "internalType": "bytes",
                    "name": "_data",
                    "type": "bytes"
                }
            ],
            "name": "safeTransferFrom",
            "outputs": [],
            "stateMutability": "nonpayable",
            "type": "function"
        },
        {
            "inputs": [
                {
                    "internalType": "address",
                    "name": "operator",
                    "type": "address"
                },
                {
                    "internalType": "bool",
                    "name": "approved",
                    "type": "bool"
                }
            ],
            "name": "setApprovalForAll",
            "outputs": [],
            "stateMutability": "nonpayable",
            "type": "function"
        },
        {
            "inputs": [],
            "name": "symbol",
            "outputs": [
                {
                    "internalType": "string",
                    "name": "",
                    "type": "string"
                }
            ],
            "stateMutability": "view",
            "type": "function",
            "constant": true
        },
        {
            "inputs": [
                {
                    "internalType": "uint256",
                    "name": "index",
                    "type": "uint256"
                }
            ],
            "name": "tokenByIndex",
            "outputs": [
                {
                    "internalType": "uint256",
                    "name": "",
                    "type": "uint256"
                }
            ],
            "stateMutability": "view",
            "type": "function",
            "constant": true
        },
        {
            "inputs": [
                {
                    "internalType": "address",
                    "name": "owner",
                    "type": "address"
                },
                {
                    "internalType": "uint256",
                    "name": "index",
                    "type": "uint256"
                }
            ],
            "name": "tokenOfOwnerByIndex",
            "outputs": [
                {
                    "internalType": "uint256",
                    "name": "",
                    "type": "uint256"
                }
            ],
            "stateMutability": "view",
            "type": "function",
            "constant": true
        },
        {
            "inputs": [],
            "name": "totalSupply",
            "outputs": [
                {
                    "internalType": "uint256",
                    "name": "",
                    "type": "uint256"
                }
            ],
            "stateMutability": "view",
            "type": "function",
            "constant": true
        },
        {
            "inputs": [
                {
                    "internalType": "address",
                    "name": "from",
                    "type": "address"
                },
                {
                    "internalType": "address",
                    "name": "to",
                    "type": "address"
                },
                {
                    "internalType": "uint256",
                    "name": "tokenId",
                    "type": "uint256"
                }
            ],
            "name": "transferFrom",
            "outputs": [],
            "stateMutability": "nonpayable",
            "type": "function"
        },
        {
            "inputs": [
                {
                    "internalType": "string",
                    "name": "_tokenURI",
                    "type": "string"
                },
                {
                    "internalType": "uint256",
                    "name": "price",
                    "type": "uint256"
                },
                {
                    "internalType": "address payable",
                    "name": "owner",
                    "type": "address"
                }
            ],
            "name": "mint",
            "outputs": [],
            "stateMutability": "nonpayable",
            "type": "function"
        },
        {
            "inputs": [
                {
                    "internalType": "uint256",
                    "name": "tokenId",
                    "type": "uint256"
                }
            ],
            "name": "getNftInfo",
            "outputs": [
                {
                    "internalType": "string",
                    "name": "URI",
                    "type": "string"
                },
                {
                    "internalType": "address",
                    "name": "owner",
                    "type": "address"
                },
                {
                    "internalType": "uint256",
                    "name": "price",
                    "type": "uint256"
                }
            ],
            "stateMutability": "view",
            "type": "function",
            "constant": true
        },
        {
            "inputs": [
                {
                    "internalType": "uint256",
                    "name": "tokenId",
                    "type": "uint256"
                }
            ],
            "name": "purchaseNft",
            "outputs": [],
            "stateMutability": "payable",
            "type": "function",
            "payable": true
        },
        {
            "inputs": [
                {
                    "internalType": "uint256",
                    "name": "tokenId",
                    "type": "uint256"
                }
            ],
            "name": "tokenURI",
            "outputs": [
                {
                    "internalType": "string",
                    "name": "",
                    "type": "string"
                }
            ],
            "stateMutability": "view",
            "type": "function",
            "constant": true
        },
        {
            "inputs": [
                {
                    "internalType": "bytes4",
                    "name": "interfaceId",
                    "type": "bytes4"
                }
            ],
            "name": "supportsInterface",
            "outputs": [
                {
                    "internalType": "bool",
                    "name": "",
                    "type": "bool"
                }
            ],
            "stateMutability": "view",
            "type": "function",
            "constant": true
        }
    ],
    "bytecode": "0x60806040523480156200001157600080fd5b506040518060400160405280600681526020017f4f70656e415200000000000000000000000000000000000000000000000000008152506040518060400160405280600581526020017f41524e4654000000000000000000000000000000000000000000000000000000815250816000908051906020019062000096929190620000c0565b508060019080519060200190620000af929190620000c0565b5050506001600681905550620001d5565b828054620000ce9062000170565b90600052602060002090601f016020900481019282620000f257600085556200013e565b82601f106200010d57805160ff19168380011785556200013e565b828001600101855582156200013e579182015b828111156200013d57825182559160200191906001019062000120565b5b5090506200014d919062000151565b5090565b5b808211156200016c57600081600090555060010162000152565b5090565b600060028204905060018216806200018957607f821691505b60208210811415620001a0576200019f620001a6565b5b50919050565b7f4e487b7100000000000000000000000000000000000000000000000000000000600052602260045260246000fd5b613df580620001e56000396000f3fe6080604052600436106101235760003560e01c80636352211e116100a0578063a2e66bfc11610064578063a2e66bfc1461041b578063b88d4fde14610437578063c87b56dd14610460578063d5ec2d831461049d578063e985e9c5146104dc57610124565b80636352211e1461032457806370a08231146103615780637af1388c1461039e57806395d89b41146103c7578063a22cb465146103f257610124565b806323b872dd116100e757806323b872dd1461022f5780632f745c591461025857806342842e0e1461029557806342966c68146102be5780634f6ccce7146102e757610124565b806301ffc9a71461013657806306fdde0314610173578063081812fc1461019e578063095ea7b3146101db57806318160ddd1461020457610124565b5b34801561013057600080fd5b50600080fd5b34801561014257600080fd5b5061015d60048036038101906101589190612a63565b610519565b60405161016a91906135d1565b60405180910390f35b34801561017f57600080fd5b5061018861052b565b60405161019591906135ec565b60405180910390f35b3480156101aa57600080fd5b506101c560048036038101906101c09190612b21565b6105bd565b6040516101d2919061356a565b60405180910390f35b3480156101e757600080fd5b5061020260048036038101906101fd9190612a27565b610642565b005b34801561021057600080fd5b5061021961075a565b604051610226919061397c565b60405180910390f35b34801561023b57600080fd5b5061025660048036038101906102519190612921565b610767565b005b34801561026457600080fd5b5061027f600480360381019061027a9190612a27565b6107c7565b60405161028c919061397c565b60405180910390f35b3480156102a157600080fd5b506102bc60048036038101906102b79190612921565b61086c565b005b3480156102ca57600080fd5b506102e560048036038101906102e09190612b21565b61088c565b005b3480156102f357600080fd5b5061030e60048036038101906103099190612b21565b6108e8565b60405161031b919061397c565b60405180910390f35b34801561033057600080fd5b5061034b60048036038101906103469190612b21565b61097f565b604051610358919061356a565b60405180910390f35b34801561036d57600080fd5b50610388600480360381019061038391906128bc565b610a31565b604051610395919061397c565b60405180910390f35b3480156103aa57600080fd5b506103c560048036038101906103c09190612ab5565b610ae9565b005b3480156103d357600080fd5b506103dc610bd7565b6040516103e991906135ec565b60405180910390f35b3480156103fe57600080fd5b50610419600480360381019061041491906129eb565b610c69565b005b61043560048036038101906104309190612b21565b610dea565b005b34801561044357600080fd5b5061045e60048036038101906104599190612970565b611038565b005b34801561046c57600080fd5b5061048760048036038101906104829190612b21565b61109a565b60405161049491906135ec565b60405180910390f35b3480156104a957600080fd5b506104c460048036038101906104bf9190612b21565b6110ac565b6040516104d39392919061360e565b60405180910390f35b3480156104e857600080fd5b5061050360048036038101906104fe91906128e5565b611135565b60405161051091906135d1565b60405180910390f35b6000610524826111c9565b9050919050565b60606000805461053a90613bd3565b80601f016020809104026020016040519081016040528092919081815260200182805461056690613bd3565b80156105b35780601f10610588576101008083540402835291602001916105b3565b820191906000526020600020905b81548152906001019060200180831161059657829003601f168201915b5050505050905090565b60006105c882611243565b610607576040517f08c379a00000000000000000000000000000000000000000000000000000000081526004016105fe9061383c565b60405180910390fd5b6004600083815260200190815260200160002060009054906101000a900473ffffffffffffffffffffffffffffffffffffffff169050919050565b600061064d8261097f565b90508073ffffffffffffffffffffffffffffffffffffffff168373ffffffffffffffffffffffffffffffffffffffff1614156106be576040517f08c379a00000000000000000000000000000000000000000000000000000000081526004016106b59061389c565b60405180910390fd5b8073ffffffffffffffffffffffffffffffffffffffff166106dd6112af565b73ffffffffffffffffffffffffffffffffffffffff16148061070c575061070b816107066112af565b611135565b5b61074b576040517f08c379a00000000000000000000000000000000000000000000000000000000081526004016107429061375c565b60405180910390fd5b61075583836112b7565b505050565b6000600980549050905090565b6107786107726112af565b82611370565b6107b7576040517f08c379a00000000000000000000000000000000000000000000000000000000081526004016107ae906138bc565b60405180910390fd5b6107c283838361144e565b505050565b60006107d283610a31565b8210610813576040517f08c379a000000000000000000000000000000000000000000000000000000000815260040161080a9061369c565b60405180910390fd5b600760008473ffffffffffffffffffffffffffffffffffffffff1673ffffffffffffffffffffffffffffffffffffffff168152602001908152602001600020600083815260200190815260200160002054905092915050565b61088783838360405180602001604052806000815250611038565b505050565b61089d6108976112af565b82611370565b6108dc576040517f08c379a00000000000000000000000000000000000000000000000000000000081526004016108d39061395c565b60405180910390fd5b6108e5816116aa565b50565b60006108f261075a565b8210610933576040517f08c379a000000000000000000000000000000000000000000000000000000000815260040161092a906138dc565b60405180910390fd5b6009828154811061096d577f4e487b7100000000000000000000000000000000000000000000000000000000600052603260045260246000fd5b90600052602060002001549050919050565b6000806002600084815260200190815260200160002060009054906101000a900473ffffffffffffffffffffffffffffffffffffffff169050600073ffffffffffffffffffffffffffffffffffffffff168173ffffffffffffffffffffffffffffffffffffffff161415610a28576040517f08c379a0000000000000000000000000000000000000000000000000000000008152600401610a1f9061379c565b60405180910390fd5b80915050919050565b60008073ffffffffffffffffffffffffffffffffffffffff168273ffffffffffffffffffffffffffffffffffffffff161415610aa2576040517f08c379a0000000000000000000000000000000000000000000000000000000008152600401610a999061377c565b60405180910390fd5b600360008373ffffffffffffffffffffffffffffffffffffffff1673ffffffffffffffffffffffffffffffffffffffff168152602001908152602001600020549050919050565b60026006541415610b2f576040517f08c379a0000000000000000000000000000000000000000000000000000000008152600401610b269061393c565b60405180910390fd5b6002600681905550610b41600c6116b6565b6000610b4d600c6116cc565b90506000600d60008381526020019081526020016000209050838160010181905550610b7983836116da565b610bc78287878080601f016020809104026020016040519081016040528093929190818152602001838380828437600081840152601f19601f820116905080830192505050505050506116f8565b5050600160068190555050505050565b606060018054610be690613bd3565b80601f0160208091040260200160405190810160405280929190818152602001828054610c1290613bd3565b8015610c5f5780601f10610c3457610100808354040283529160200191610c5f565b820191906000526020600020905b815481529060010190602001808311610c4257829003601f168201915b5050505050905090565b610c716112af565b73ffffffffffffffffffffffffffffffffffffffff168273ffffffffffffffffffffffffffffffffffffffff161415610cdf576040517f08c379a0000000000000000000000000000000000000000000000000000000008152600401610cd69061371c565b60405180910390fd5b8060056000610cec6112af565b73ffffffffffffffffffffffffffffffffffffffff1673ffffffffffffffffffffffffffffffffffffffff16815260200190815260200160002060008473ffffffffffffffffffffffffffffffffffffffff1673ffffffffffffffffffffffffffffffffffffffff16815260200190815260200160002060006101000a81548160ff0219169083151502179055508173ffffffffffffffffffffffffffffffffffffffff16610d996112af565b73ffffffffffffffffffffffffffffffffffffffff167f17307eab39ab6107e8899845ad3d59bd9653f200f220920489ca2b5937696c3183604051610dde91906135d1565b60405180910390a35050565b610df381611243565b610e32576040517f08c379a0000000000000000000000000000000000000000000000000000000008152600401610e29906137dc565b60405180910390fd5b600d600082815260200190815260200160002060010154341015610e8b576040517f08c379a0000000000000000000000000000000000000000000000000000000008152600401610e829061391c565b60405180910390fd5b600d600082815260200190815260200160002060030160003373ffffffffffffffffffffffffffffffffffffffff1673ffffffffffffffffffffffffffffffffffffffff16815260200190815260200160002060009054906101000a900460ff1615610f2c576040517f08c379a0000000000000000000000000000000000000000000000000000000008152600401610f23906138fc565b60405180910390fd5b610f358161097f565b73ffffffffffffffffffffffffffffffffffffffff166108fc349081150290604051600060405180830381858888f19350505050158015610f7a573d6000803e3d6000fd5b506001600d600083815260200190815260200160002060030160003373ffffffffffffffffffffffffffffffffffffffff1673ffffffffffffffffffffffffffffffffffffffff16815260200190815260200160002060006101000a81548160ff0219169083151502179055507f90a2e491e581905298c5098efde4d8766a9d891f5b7741ea79d0c48d2b158f2f600d60008381526020019081526020016000206000013460405161102d92919061364c565b60405180910390a150565b6110496110436112af565b83611370565b611088576040517f08c379a000000000000000000000000000000000000000000000000000000000815260040161107f906138bc565b60405180910390fd5b6110948484848461176c565b50505050565b60606110a5826117c8565b9050919050565b60606000806110ba84611243565b6110f9576040517f08c379a00000000000000000000000000000000000000000000000000000000081526004016110f09061367c565b60405180910390fd5b6000611104856117c8565b9050806111108661097f565b600d600088815260200190815260200160002060010154935093509350509193909250565b6000600560008473ffffffffffffffffffffffffffffffffffffffff1673ffffffffffffffffffffffffffffffffffffffff16815260200190815260200160002060008373ffffffffffffffffffffffffffffffffffffffff1673ffffffffffffffffffffffffffffffffffffffff16815260200190815260200160002060009054906101000a900460ff16905092915050565b60007f780e9d63000000000000000000000000000000000000000000000000000000007bffffffffffffffffffffffffffffffffffffffffffffffffffffffff1916827bffffffffffffffffffffffffffffffffffffffffffffffffffffffff1916148061123c575061123b8261191a565b5b9050919050565b60008073ffffffffffffffffffffffffffffffffffffffff166002600084815260200190815260200160002060009054906101000a900473ffffffffffffffffffffffffffffffffffffffff1673ffffffffffffffffffffffffffffffffffffffff1614159050919050565b600033905090565b816004600083815260200190815260200160002060006101000a81548173ffffffffffffffffffffffffffffffffffffffff021916908373ffffffffffffffffffffffffffffffffffffffff160217905550808273ffffffffffffffffffffffffffffffffffffffff1661132a8361097f565b73ffffffffffffffffffffffffffffffffffffffff167f8c5be1e5ebec7d5bd14f71427d1e84f3dd0314c0f7b2291e5b200ac8c7c3b92560405160405180910390a45050565b600061137b82611243565b6113ba576040517f08c379a00000000000000000000000000000000000000000000000000000000081526004016113b19061373c565b60405180910390fd5b60006113c58361097f565b90508073ffffffffffffffffffffffffffffffffffffffff168473ffffffffffffffffffffffffffffffffffffffff16148061143457508373ffffffffffffffffffffffffffffffffffffffff1661141c846105bd565b73ffffffffffffffffffffffffffffffffffffffff16145b8061144557506114448185611135565b5b91505092915050565b8273ffffffffffffffffffffffffffffffffffffffff1661146e8261097f565b73ffffffffffffffffffffffffffffffffffffffff16146114c4576040517f08c379a00000000000000000000000000000000000000000000000000000000081526004016114bb9061385c565b60405180910390fd5b600073ffffffffffffffffffffffffffffffffffffffff168273ffffffffffffffffffffffffffffffffffffffff161415611534576040517f08c379a000000000000000000000000000000000000000000000000000000000815260040161152b906136fc565b60405180910390fd5b61153f8383836119fc565b61154a6000826112b7565b6001600360008573ffffffffffffffffffffffffffffffffffffffff1673ffffffffffffffffffffffffffffffffffffffff168152602001908152602001600020600082825461159a9190613ad7565b925050819055506001600360008473ffffffffffffffffffffffffffffffffffffffff1673ffffffffffffffffffffffffffffffffffffffff16815260200190815260200160002060008282546115f19190613a50565b92505081905550816002600083815260200190815260200160002060006101000a81548173ffffffffffffffffffffffffffffffffffffffff021916908373ffffffffffffffffffffffffffffffffffffffff160217905550808273ffffffffffffffffffffffffffffffffffffffff168473ffffffffffffffffffffffffffffffffffffffff167fddf252ad1be2c89b69c2b068fc378daa952ba7f163c4a11628f55a4df523b3ef60405160405180910390a4505050565b6116b381611a0c565b50565b6001816000016000828254019250508190555050565b600081600001549050919050565b6116f4828260405180602001604052806000815250611a5f565b5050565b61170182611243565b611740576040517f08c379a0000000000000000000000000000000000000000000000000000000008152600401611737906137bc565b60405180910390fd5b80600b600084815260200190815260200160002090805190602001906117679291906126a9565b505050565b61177784848461144e565b61178384848484611aba565b6117c2576040517f08c379a00000000000000000000000000000000000000000000000000000000081526004016117b9906136bc565b60405180910390fd5b50505050565b60606117d382611243565b611812576040517f08c379a00000000000000000000000000000000000000000000000000000000081526004016118099061381c565b60405180910390fd5b6000600b6000848152602001908152602001600020805461183290613bd3565b80601f016020809104026020016040519081016040528092919081815260200182805461185e90613bd3565b80156118ab5780601f10611880576101008083540402835291602001916118ab565b820191906000526020600020905b81548152906001019060200180831161188e57829003601f168201915b5050505050905060006118bc611c51565b90506000815114156118d2578192505050611915565b6000825111156119075780826040516020016118ef929190613546565b60405160208183030381529060405292505050611915565b61191084611c68565b925050505b919050565b60007f80ac58cd000000000000000000000000000000000000000000000000000000007bffffffffffffffffffffffffffffffffffffffffffffffffffffffff1916827bffffffffffffffffffffffffffffffffffffffffffffffffffffffff191614806119e557507f5b5e139f000000000000000000000000000000000000000000000000000000007bffffffffffffffffffffffffffffffffffffffffffffffffffffffff1916827bffffffffffffffffffffffffffffffffffffffffffffffffffffffff1916145b806119f557506119f482611d0f565b5b9050919050565b611a07838383611d79565b505050565b611a1581611e8d565b6000600b60008381526020019081526020016000208054611a3590613bd3565b905014611a5c57600b60008281526020019081526020016000206000611a5b919061272f565b5b50565b611a698383611f9e565b611a766000848484611aba565b611ab5576040517f08c379a0000000000000000000000000000000000000000000000000000000008152600401611aac906136bc565b60405180910390fd5b505050565b6000611adb8473ffffffffffffffffffffffffffffffffffffffff1661216c565b15611c44578373ffffffffffffffffffffffffffffffffffffffff1663150b7a02611b046112af565b8786866040518563ffffffff1660e01b8152600401611b269493929190613585565b602060405180830381600087803b158015611b4057600080fd5b505af1925050508015611b7157506040513d601f19601f82011682018060405250810190611b6e9190612a8c565b60015b611bf4573d8060008114611ba1576040519150601f19603f3d011682016040523d82523d6000602084013e611ba6565b606091505b50600081511415611bec576040517f08c379a0000000000000000000000000000000000000000000000000000000008152600401611be3906136bc565b60405180910390fd5b805181602001fd5b63150b7a0260e01b7bffffffffffffffffffffffffffffffffffffffffffffffffffffffff1916817bffffffffffffffffffffffffffffffffffffffffffffffffffffffff191614915050611c49565b600190505b949350505050565b606060405180602001604052806000815250905090565b6060611c7382611243565b611cb2576040517f08c379a0000000000000000000000000000000000000000000000000000000008152600401611ca99061387c565b60405180910390fd5b6000611cbc611c51565b90506000815111611cdc5760405180602001604052806000815250611d07565b80611ce68461217f565b604051602001611cf7929190613546565b6040516020818303038152906040525b915050919050565b60007f01ffc9a7000000000000000000000000000000000000000000000000000000007bffffffffffffffffffffffffffffffffffffffffffffffffffffffff1916827bffffffffffffffffffffffffffffffffffffffffffffffffffffffff1916149050919050565b611d8483838361232c565b600073ffffffffffffffffffffffffffffffffffffffff168373ffffffffffffffffffffffffffffffffffffffff161415611dc757611dc281612331565b611e06565b8173ffffffffffffffffffffffffffffffffffffffff168373ffffffffffffffffffffffffffffffffffffffff1614611e0557611e04838261237a565b5b5b600073ffffffffffffffffffffffffffffffffffffffff168273ffffffffffffffffffffffffffffffffffffffff161415611e4957611e44816124e7565b611e88565b8273ffffffffffffffffffffffffffffffffffffffff168273ffffffffffffffffffffffffffffffffffffffff1614611e8757611e86828261262a565b5b5b505050565b6000611e988261097f565b9050611ea6816000846119fc565b611eb16000836112b7565b6001600360008373ffffffffffffffffffffffffffffffffffffffff1673ffffffffffffffffffffffffffffffffffffffff1681526020019081526020016000206000828254611f019190613ad7565b925050819055506002600083815260200190815260200160002060006101000a81549073ffffffffffffffffffffffffffffffffffffffff021916905581600073ffffffffffffffffffffffffffffffffffffffff168273ffffffffffffffffffffffffffffffffffffffff167fddf252ad1be2c89b69c2b068fc378daa952ba7f163c4a11628f55a4df523b3ef60405160405180910390a45050565b600073ffffffffffffffffffffffffffffffffffffffff168273ffffffffffffffffffffffffffffffffffffffff16141561200e576040517f08c379a0000000000000000000000000000000000000000000000000000000008152600401612005906137fc565b60405180910390fd5b61201781611243565b15612057576040517f08c379a000000000000000000000000000000000000000000000000000000000815260040161204e906136dc565b60405180910390fd5b612063600083836119fc565b6001600360008473ffffffffffffffffffffffffffffffffffffffff1673ffffffffffffffffffffffffffffffffffffffff16815260200190815260200160002060008282546120b39190613a50565b92505081905550816002600083815260200190815260200160002060006101000a81548173ffffffffffffffffffffffffffffffffffffffff021916908373ffffffffffffffffffffffffffffffffffffffff160217905550808273ffffffffffffffffffffffffffffffffffffffff16600073ffffffffffffffffffffffffffffffffffffffff167fddf252ad1be2c89b69c2b068fc378daa952ba7f163c4a11628f55a4df523b3ef60405160405180910390a45050565b600080823b905060008111915050919050565b606060008214156121c7576040518060400160405280600181526020017f30000000000000000000000000000000000000000000000000000000000000008152509050612327565b600082905060005b600082146121f95780806121e290613c05565b915050600a826121f29190613aa6565b91506121cf565b60008167ffffffffffffffff81111561223b577f4e487b7100000000000000000000000000000000000000000000000000000000600052604160045260246000fd5b6040519080825280601f01601f19166020018201604052801561226d5781602001600182028036833780820191505090505b5090505b60008514612320576001826122869190613ad7565b9150600a856122959190613c4e565b60306122a19190613a50565b60f81b8183815181106122dd577f4e487b7100000000000000000000000000000000000000000000000000000000600052603260045260246000fd5b60200101907effffffffffffffffffffffffffffffffffffffffffffffffffffffffffffff1916908160001a905350600a856123199190613aa6565b9450612271565b8093505050505b919050565b505050565b600980549050600a600083815260200190815260200160002081905550600981908060018154018082558091505060019003906000526020600020016000909190919091505550565b6000600161238784610a31565b6123919190613ad7565b9050600060086000848152602001908152602001600020549050818114612476576000600760008673ffffffffffffffffffffffffffffffffffffffff1673ffffffffffffffffffffffffffffffffffffffff168152602001908152602001600020600084815260200190815260200160002054905080600760008773ffffffffffffffffffffffffffffffffffffffff1673ffffffffffffffffffffffffffffffffffffffff168152602001908152602001600020600084815260200190815260200160002081905550816008600083815260200190815260200160002081905550505b6008600084815260200190815260200160002060009055600760008573ffffffffffffffffffffffffffffffffffffffff1673ffffffffffffffffffffffffffffffffffffffff16815260200190815260200160002060008381526020019081526020016000206000905550505050565b600060016009805490506124fb9190613ad7565b90506000600a6000848152602001908152602001600020549050600060098381548110612551577f4e487b7100000000000000000000000000000000000000000000000000000000600052603260045260246000fd5b906000526020600020015490508060098381548110612599577f4e487b7100000000000000000000000000000000000000000000000000000000600052603260045260246000fd5b906000526020600020018190555081600a600083815260200190815260200160002081905550600a600085815260200190815260200160002060009055600980548061260e577f4e487b7100000000000000000000000000000000000000000000000000000000600052603160045260246000fd5b6001900381819060005260206000200160009055905550505050565b600061263583610a31565b905081600760008573ffffffffffffffffffffffffffffffffffffffff1673ffffffffffffffffffffffffffffffffffffffff168152602001908152602001600020600083815260200190815260200160002081905550806008600084815260200190815260200160002081905550505050565b8280546126b590613bd3565b90600052602060002090601f0160209004810192826126d7576000855561271e565b82601f106126f057805160ff191683800117855561271e565b8280016001018555821561271e579182015b8281111561271d578251825591602001919060010190612702565b5b50905061272b919061276f565b5090565b50805461273b90613bd3565b6000825580601f1061274d575061276c565b601f01602090049060005260206000209081019061276b919061276f565b5b50565b5b80821115612788576000816000905550600101612770565b5090565b600061279f61279a846139c8565b613997565b9050828152602081018484840111156127b757600080fd5b6127c2848285613b91565b509392505050565b6000813590506127d981613d4c565b92915050565b6000813590506127ee81613d63565b92915050565b60008135905061280381613d7a565b92915050565b60008135905061281881613d91565b92915050565b60008151905061282d81613d91565b92915050565b600082601f83011261284457600080fd5b813561285484826020860161278c565b91505092915050565b60008083601f84011261286f57600080fd5b8235905067ffffffffffffffff81111561288857600080fd5b6020830191508360018202830111156128a057600080fd5b9250929050565b6000813590506128b681613da8565b92915050565b6000602082840312156128ce57600080fd5b60006128dc848285016127ca565b91505092915050565b600080604083850312156128f857600080fd5b6000612906858286016127ca565b9250506020612917858286016127ca565b9150509250929050565b60008060006060848603121561293657600080fd5b6000612944868287016127ca565b9350506020612955868287016127ca565b9250506040612966868287016128a7565b9150509250925092565b6000806000806080858703121561298657600080fd5b6000612994878288016127ca565b94505060206129a5878288016127ca565b93505060406129b6878288016128a7565b925050606085013567ffffffffffffffff8111156129d357600080fd5b6129df87828801612833565b91505092959194509250565b600080604083850312156129fe57600080fd5b6000612a0c858286016127ca565b9250506020612a1d858286016127f4565b9150509250929050565b60008060408385031215612a3a57600080fd5b6000612a48858286016127ca565b9250506020612a59858286016128a7565b9150509250929050565b600060208284031215612a7557600080fd5b6000612a8384828501612809565b91505092915050565b600060208284031215612a9e57600080fd5b6000612aac8482850161281e565b91505092915050565b60008060008060608587031215612acb57600080fd5b600085013567ffffffffffffffff811115612ae557600080fd5b612af18782880161285d565b94509450506020612b04878288016128a7565b9250506040612b15878288016127df565b91505092959194509250565b600060208284031215612b3357600080fd5b6000612b41848285016128a7565b91505092915050565b612b5381613b0b565b82525050565b612b6281613b2f565b82525050565b6000612b7382613a0d565b612b7d8185613a23565b9350612b8d818560208601613ba0565b612b9681613d3b565b840191505092915050565b6000612bac82613a18565b612bb68185613a34565b9350612bc6818560208601613ba0565b612bcf81613d3b565b840191505092915050565b6000612be582613a18565b612bef8185613a45565b9350612bff818560208601613ba0565b80840191505092915050565b60008154612c1881613bd3565b612c228186613a34565b94506001821660008114612c3d5760018114612c4f57612c82565b60ff1983168652602086019350612c82565b612c58856139f8565b60005b83811015612c7a57815481890152600182019150602081019050612c5b565b808801955050505b50505092915050565b6000612c98602583613a34565b91507f4e6674496e666f20717565727920666f72206e6f6e6578697374656e7420746f60008301527f6b656e49640000000000000000000000000000000000000000000000000000006020830152604082019050919050565b6000612cfe602b83613a34565b91507f455243373231456e756d657261626c653a206f776e657220696e646578206f7560008301527f74206f6620626f756e64730000000000000000000000000000000000000000006020830152604082019050919050565b6000612d64603283613a34565b91507f4552433732313a207472616e7366657220746f206e6f6e20455243373231526560008301527f63656976657220696d706c656d656e74657200000000000000000000000000006020830152604082019050919050565b6000612dca601c83613a34565b91507f4552433732313a20746f6b656e20616c7265616479206d696e746564000000006000830152602082019050919050565b6000612e0a602483613a34565b91507f4552433732313a207472616e7366657220746f20746865207a65726f2061646460008301527f72657373000000000000000000000000000000000000000000000000000000006020830152604082019050919050565b6000612e70601983613a34565b91507f4552433732313a20617070726f766520746f2063616c6c6572000000000000006000830152602082019050919050565b6000612eb0602c83613a34565b91507f4552433732313a206f70657261746f7220717565727920666f72206e6f6e657860008301527f697374656e7420746f6b656e00000000000000000000000000000000000000006020830152604082019050919050565b6000612f16603883613a34565b91507f4552433732313a20617070726f76652063616c6c6572206973206e6f74206f7760008301527f6e6572206e6f7220617070726f76656420666f7220616c6c00000000000000006020830152604082019050919050565b6000612f7c602a83613a34565b91507f4552433732313a2062616c616e636520717565727920666f7220746865207a6560008301527f726f2061646472657373000000000000000000000000000000000000000000006020830152604082019050919050565b6000612fe2602983613a34565b91507f4552433732313a206f776e657220717565727920666f72206e6f6e657869737460008301527f656e7420746f6b656e00000000000000000000000000000000000000000000006020830152604082019050919050565b6000613048602e83613a34565b91507f45524337323155524953746f726167653a2055524920736574206f66206e6f6e60008301527f6578697374656e7420746f6b656e0000000000000000000000000000000000006020830152604082019050919050565b60006130ae602983613a34565b91507f70757263686173654e667420717565727920666f72206e6f6e6578697374656e60008301527f7420746f6b656e496400000000000000000000000000000000000000000000006020830152604082019050919050565b6000613114602083613a34565b91507f4552433732313a206d696e7420746f20746865207a65726f20616464726573736000830152602082019050919050565b6000613154603183613a34565b91507f45524337323155524953746f726167653a2055524920717565727920666f722060008301527f6e6f6e6578697374656e7420746f6b656e0000000000000000000000000000006020830152604082019050919050565b60006131ba602c83613a34565b91507f4552433732313a20617070726f76656420717565727920666f72206e6f6e657860008301527f697374656e7420746f6b656e00000000000000000000000000000000000000006020830152604082019050919050565b6000613220602983613a34565b91507f4552433732313a207472616e73666572206f6620746f6b656e2074686174206960008301527f73206e6f74206f776e00000000000000000000000000000000000000000000006020830152604082019050919050565b6000613286602f83613a34565b91507f4552433732314d657461646174613a2055524920717565727920666f72206e6f60008301527f6e6578697374656e7420746f6b656e00000000000000000000000000000000006020830152604082019050919050565b60006132ec602183613a34565b91507f4552433732313a20617070726f76616c20746f2063757272656e74206f776e6560008301527f72000000000000000000000000000000000000000000000000000000000000006020830152604082019050919050565b6000613352603183613a34565b91507f4552433732313a207472616e736665722063616c6c6572206973206e6f74206f60008301527f776e6572206e6f7220617070726f7665640000000000000000000000000000006020830152604082019050919050565b60006133b8602c83613a34565b91507f455243373231456e756d657261626c653a20676c6f62616c20696e646578206f60008301527f7574206f6620626f756e647300000000000000000000000000000000000000006020830152604082019050919050565b600061341e601583613a34565b91507f4e465420616c72656164792070757263686173656400000000000000000000006000830152602082019050919050565b600061345e601a83613a34565b91507f4e6f7420656e6f7567682045746820746f2070757263686173650000000000006000830152602082019050919050565b600061349e601f83613a34565b91507f5265656e7472616e637947756172643a207265656e7472616e742063616c6c006000830152602082019050919050565b60006134de603083613a34565b91507f4552433732314275726e61626c653a2063616c6c6572206973206e6f74206f7760008301527f6e6572206e6f7220617070726f766564000000000000000000000000000000006020830152604082019050919050565b61354081613b87565b82525050565b60006135528285612bda565b915061355e8284612bda565b91508190509392505050565b600060208201905061357f6000830184612b4a565b92915050565b600060808201905061359a6000830187612b4a565b6135a76020830186612b4a565b6135b46040830185613537565b81810360608301526135c68184612b68565b905095945050505050565b60006020820190506135e66000830184612b59565b92915050565b600060208201905081810360008301526136068184612ba1565b905092915050565b600060608201905081810360008301526136288186612ba1565b90506136376020830185612b4a565b6136446040830184613537565b949350505050565b600060408201905081810360008301526136668185612c0b565b90506136756020830184613537565b9392505050565b6000602082019050818103600083015261369581612c8b565b9050919050565b600060208201905081810360008301526136b581612cf1565b9050919050565b600060208201905081810360008301526136d581612d57565b9050919050565b600060208201905081810360008301526136f581612dbd565b9050919050565b6000602082019050818103600083015261371581612dfd565b9050919050565b6000602082019050818103600083015261373581612e63565b9050919050565b6000602082019050818103600083015261375581612ea3565b9050919050565b6000602082019050818103600083015261377581612f09565b9050919050565b6000602082019050818103600083015261379581612f6f565b9050919050565b600060208201905081810360008301526137b581612fd5565b9050919050565b600060208201905081810360008301526137d58161303b565b9050919050565b600060208201905081810360008301526137f5816130a1565b9050919050565b6000602082019050818103600083015261381581613107565b9050919050565b6000602082019050818103600083015261383581613147565b9050919050565b60006020820190508181036000830152613855816131ad565b9050919050565b6000602082019050818103600083015261387581613213565b9050919050565b6000602082019050818103600083015261389581613279565b9050919050565b600060208201905081810360008301526138b5816132df565b9050919050565b600060208201905081810360008301526138d581613345565b9050919050565b600060208201905081810360008301526138f5816133ab565b9050919050565b6000602082019050818103600083015261391581613411565b9050919050565b6000602082019050818103600083015261393581613451565b9050919050565b6000602082019050818103600083015261395581613491565b9050919050565b60006020820190508181036000830152613975816134d1565b9050919050565b60006020820190506139916000830184613537565b92915050565b6000604051905081810181811067ffffffffffffffff821117156139be576139bd613d0c565b5b8060405250919050565b600067ffffffffffffffff8211156139e3576139e2613d0c565b5b601f19601f8301169050602081019050919050565b60008190508160005260206000209050919050565b600081519050919050565b600081519050919050565b600082825260208201905092915050565b600082825260208201905092915050565b600081905092915050565b6000613a5b82613b87565b9150613a6683613b87565b9250827fffffffffffffffffffffffffffffffffffffffffffffffffffffffffffffffff03821115613a9b57613a9a613c7f565b5b828201905092915050565b6000613ab182613b87565b9150613abc83613b87565b925082613acc57613acb613cae565b5b828204905092915050565b6000613ae282613b87565b9150613aed83613b87565b925082821015613b0057613aff613c7f565b5b828203905092915050565b6000613b1682613b67565b9050919050565b6000613b2882613b67565b9050919050565b60008115159050919050565b60007fffffffff0000000000000000000000000000000000000000000000000000000082169050919050565b600073ffffffffffffffffffffffffffffffffffffffff82169050919050565b6000819050919050565b82818337600083830152505050565b60005b83811015613bbe578082015181840152602081019050613ba3565b83811115613bcd576000848401525b50505050565b60006002820490506001821680613beb57607f821691505b60208210811415613bff57613bfe613cdd565b5b50919050565b6000613c1082613b87565b91507fffffffffffffffffffffffffffffffffffffffffffffffffffffffffffffffff821415613c4357613c42613c7f565b5b600182019050919050565b6000613c5982613b87565b9150613c6483613b87565b925082613c7457613c73613cae565b5b828206905092915050565b7f4e487b7100000000000000000000000000000000000000000000000000000000600052601160045260246000fd5b7f4e487b7100000000000000000000000000000000000000000000000000000000600052601260045260246000fd5b7f4e487b7100000000000000000000000000000000000000000000000000000000600052602260045260246000fd5b7f4e487b7100000000000000000000000000000000000000000000000000000000600052604160045260246000fd5b6000601f19601f8301169050919050565b613d5581613b0b565b8114613d6057600080fd5b50565b613d6c81613b1d565b8114613d7757600080fd5b50565b613d8381613b2f565b8114613d8e57600080fd5b50565b613d9a81613b3b565b8114613da557600080fd5b50565b613db181613b87565b8114613dbc57600080fd5b5056fea264697066735822122089c23e898c94d39dc191a24433726835b7b068aaf556bafe7e701f62b5056f1764736f6c63430008000033",
    "immutableReferences": {},
    "source": "// SPDX-License-Identifier: MIT\npragma solidity ^0.8.0;\n\nimport \"@openzeppelin/contracts/token/ERC721/ERC721.sol\";\nimport \"@openzeppelin/contracts/token/ERC721/extensions/ERC721Enumerable.sol\";\nimport \"@openzeppelin/contracts/token/ERC721/extensions/ERC721Burnable.sol\";\nimport \"@openzeppelin/contracts/token/ERC721/extensions/ERC721URIStorage.sol\";\nimport \"@openzeppelin/contracts/utils/Counters.sol\";\n// import \"@openzeppelin/contracts/access/Ownable.sol\";\nimport \"@openzeppelin/contracts/security/ReentrancyGuard.sol\";\n\n///@title OpenAR Contract\n///@author Tyler Woolcott\n///@notice You can use this contract to mint and transfer AR NFTs \ncontract OpenAR is ERC721(\"OpenAR\", \"ARNFT\"), ReentrancyGuard, ERC721Enumerable, ERC721Burnable, ERC721URIStorage {\n  using Counters for Counters.Counter;\n  Counters.Counter private _tokenIds;\n\n  struct NftInfo {\n      string NftURI;\n      uint256 price;    // Price in wei\n      uint256 purchasedNftCounter;\n      mapping(address => bool) purchasedNfts;\n  }\n\n  mapping(uint256 => NftInfo) private _nftInfo;\n\n  event NftPurchased(string NftURI, uint256 amount);\n\n///@dev tokenURI should have prefix http, https, ipfs or ar. For example, use ar://xyz\n/// instead of https://arweave.net/xyz.  Emits Created with ID of NFT when completed.\n///@param _tokenURI URI of the json file containing the metadata in JSON format.  Should conform to the ERC721 Metadata JSON Schema\nfunction mint (string calldata _tokenURI, uint256 price, address payable owner) \n  external \n  nonReentrant\n  {\n  _tokenIds.increment();\n  uint256 newTokenId = _tokenIds.current();\n  NftInfo storage newNftInfo = _nftInfo[newTokenId];\n  newNftInfo.price = price;\n  _safeMint(owner, newTokenId);\n  _setTokenURI (newTokenId, _tokenURI);\n  }\n  \n///@notice The stored information for a given NFT\n///@dev Throws if NFT with ID is not valid\n///@param tokenId Id of the NFT\n///@return URI of the NFT\n///@return owner of the NFT\nfunction getNftInfo (uint256 tokenId) external view returns (string memory URI, address owner, uint256 price) {\n  require(_exists(tokenId), \"NftInfo query for nonexistent tokenId\");\n  string memory _URI = super.tokenURI(tokenId);\n  return (_URI, ownerOf(tokenId), _nftInfo[tokenId].price);\n  } \n  \n///@notice Sends ETH to NFT owner\n///@dev Throws if ETH sent with contract is less than NFT price\n///@param tokenId Id of the NFT to purchase\n  function purchaseNft(uint256 tokenId) external payable {\n    require(_exists(tokenId), \"purchaseNft query for nonexistent tokenId\");\n    require(msg.value >= _nftInfo[tokenId].price, \"Not enough Eth to purchase\");\n    require(!_nftInfo[tokenId].purchasedNfts[msg.sender], \"NFT already purchased\");\n\n    payable(ownerOf(tokenId)).transfer(msg.value);\n      _nftInfo[tokenId].purchasedNfts[msg.sender] = true;\n    emit NftPurchased(_nftInfo[tokenId].NftURI, msg.value);\n  }\n  \n///@notice Revert the transaction if it's failing\n///@dev `fallback` will fully revert the tx if there is no proper input or call\n  fallback() external {\n    revert();\n  }\n\n///@notice The following functions are overrides required by Solidity.\n///@notice Conforms to the ERC721 metadata extension - https://eips.ethereum.org/EIPS/eip-721\n  function tokenURI(uint256 tokenId) public view override(ERC721, ERC721URIStorage) returns (string memory) {\n    return super.tokenURI(tokenId);\n  }\n\n  ///@notice As ERC721, ERC721Enumerable, and include _beforeTokenTransfer we need to override both.\n  function _beforeTokenTransfer(address from, address to, uint256 amount) internal override(ERC721, ERC721Enumerable) {\n    super._beforeTokenTransfer(from, to, amount);\n  }\n\n  ///@notice As ERC721 and ERC721Enumerable include supportsInterface we need to override both.\n  function supportsInterface(bytes4 interfaceId) public view override(ERC721, ERC721Enumerable) returns (bool) {\n      return super.supportsInterface(interfaceId);\n  }\n\n  ///@notice As ERC721 and ERC721URIStorage include supportsInterface we need to override both.\n  function _burn(uint256 tokenId) internal override (ERC721, ERC721URIStorage)  {\n    super._burn(tokenId);\n  }\n}",
    "sourcePath": "/Users/tylerwoolcott/Dev/ethers-test/contracts/OpenAR.sol",
    "compiler": {
        "name": "solc",
        "version": "0.8.0+commit.c7dfd78e.Emscripten.clang"
    },
    "schemaVersion": "3.4.3",
    "updatedAt": "2021-11-13T16:37:06.103Z",
    "networkType": "ethereum",
    "devdoc": {
        "author": "Tyler Woolcott",
        "kind": "dev",
        "methods": {
            "approve(address,uint256)": {
                "details": "See {IERC721-approve}."
            },
            "balanceOf(address)": {
                "details": "See {IERC721-balanceOf}."
            },
            "burn(uint256)": {
                "details": "Burns `tokenId`. See {ERC721-_burn}. Requirements: - The caller must own `tokenId` or be an approved operator."
            },
            "getApproved(uint256)": {
                "details": "See {IERC721-getApproved}."
            },
            "getNftInfo(uint256)": {
                "details": "Throws if NFT with ID is not valid",
                "params": {
                    "tokenId": "Id of the NFT"
                },
                "returns": {
                    "URI": "of the NFT",
                    "owner": "of the NFT"
                }
            },
            "isApprovedForAll(address,address)": {
                "details": "See {IERC721-isApprovedForAll}."
            },
            "mint(string,uint256,address)": {
                "details": "tokenURI should have prefix http, https, ipfs or ar. For example, use ar://xyz instead of https://arweave.net/xyz.  Emits Created with ID of NFT when completed.",
                "params": {
                    "_tokenURI": "URI of the json file containing the metadata in JSON format.  Should conform to the ERC721 Metadata JSON Schema"
                }
            },
            "name()": {
                "details": "See {IERC721Metadata-name}."
            },
            "ownerOf(uint256)": {
                "details": "See {IERC721-ownerOf}."
            },
            "purchaseNft(uint256)": {
                "details": "Throws if ETH sent with contract is less than NFT price",
                "params": {
                    "tokenId": "Id of the NFT to purchase"
                }
            },
            "safeTransferFrom(address,address,uint256)": {
                "details": "See {IERC721-safeTransferFrom}."
            },
            "safeTransferFrom(address,address,uint256,bytes)": {
                "details": "See {IERC721-safeTransferFrom}."
            },
            "setApprovalForAll(address,bool)": {
                "details": "See {IERC721-setApprovalForAll}."
            },
            "symbol()": {
                "details": "See {IERC721Metadata-symbol}."
            },
            "tokenByIndex(uint256)": {
                "details": "See {IERC721Enumerable-tokenByIndex}."
            },
            "tokenOfOwnerByIndex(address,uint256)": {
                "details": "See {IERC721Enumerable-tokenOfOwnerByIndex}."
            },
            "totalSupply()": {
                "details": "See {IERC721Enumerable-totalSupply}."
            },
            "transferFrom(address,address,uint256)": {
                "details": "See {IERC721-transferFrom}."
            }
        },
        "title": "OpenAR Contract",
        "version": 1
    },
    "userdoc": {
        "kind": "user",
        "methods": {
            "getNftInfo(uint256)": {
                "notice": "The stored information for a given NFT"
            },
            "purchaseNft(uint256)": {
                "notice": "Sends ETH to NFT owner"
            },
            "supportsInterface(bytes4)": {
                "notice": "As ERC721 and ERC721Enumerable include supportsInterface we need to override both."
            },
            "tokenURI(uint256)": {
                "notice": "The following functions are overrides required by Solidity.Conforms to the ERC721 metadata extension - https://eips.ethereum.org/EIPS/eip-721"
            }
        },
        "notice": "You can use this contract to mint and transfer AR NFTs ",
        "version": 1
    }
}