{
  "contractName": "OpenAR",
  "abi": [
    {
      "anonymous": false,
      "inputs": [
        {
          "indexed": true,
          "internalType": "address",
          "name": "owner",
          "type": "address"
        },
        {
          "indexed": true,
          "internalType": "address",
          "name": "approved",
          "type": "address"
        },
        {
          "indexed": true,
          "internalType": "uint256",
          "name": "tokenId",
          "type": "uint256"
        }
      ],
      "name": "Approval",
      "type": "event"
    },
    {
      "anonymous": false,
      "inputs": [
        {
          "indexed": true,
          "internalType": "address",
          "name": "owner",
          "type": "address"
        },
        {
          "indexed": true,
          "internalType": "address",
          "name": "operator",
          "type": "address"
        },
        {
          "indexed": false,
          "internalType": "bool",
          "name": "approved",
          "type": "bool"
        }
      ],
      "name": "ApprovalForAll",
      "type": "event"
    },
    {
      "anonymous": false,
      "inputs": [
        {
          "indexed": false,
          "internalType": "string",
          "name": "NftURI",
          "type": "string"
        },
        {
          "indexed": false,
          "internalType": "uint256",
          "name": "amount",
          "type": "uint256"
        }
      ],
      "name": "NftPurchased",
      "type": "event"
    },
    {
      "anonymous": false,
      "inputs": [
        {
          "indexed": true,
          "internalType": "address",
          "name": "previousOwner",
          "type": "address"
        },
        {
          "indexed": true,
          "internalType": "address",
          "name": "newOwner",
          "type": "address"
        }
      ],
      "name": "OwnershipTransferred",
      "type": "event"
    },
    {
      "anonymous": false,
      "inputs": [
        {
          "indexed": false,
          "internalType": "address",
          "name": "account",
          "type": "address"
        }
      ],
      "name": "Paused",
      "type": "event"
    },
    {
      "anonymous": false,
      "inputs": [
        {
          "indexed": true,
          "internalType": "address",
          "name": "from",
          "type": "address"
        },
        {
          "indexed": true,
          "internalType": "address",
          "name": "to",
          "type": "address"
        },
        {
          "indexed": true,
          "internalType": "uint256",
          "name": "tokenId",
          "type": "uint256"
        }
      ],
      "name": "Transfer",
      "type": "event"
    },
    {
      "anonymous": false,
      "inputs": [
        {
          "indexed": false,
          "internalType": "address",
          "name": "account",
          "type": "address"
        }
      ],
      "name": "Unpaused",
      "type": "event"
    },
    {
      "stateMutability": "nonpayable",
      "type": "fallback"
    },
    {
      "inputs": [
        {
          "internalType": "address",
          "name": "to",
          "type": "address"
        },
        {
          "internalType": "uint256",
          "name": "tokenId",
          "type": "uint256"
        }
      ],
      "name": "approve",
      "outputs": [],
      "stateMutability": "nonpayable",
      "type": "function"
    },
    {
      "inputs": [
        {
          "internalType": "address",
          "name": "owner",
          "type": "address"
        }
      ],
      "name": "balanceOf",
      "outputs": [
        {
          "internalType": "uint256",
          "name": "",
          "type": "uint256"
        }
      ],
      "stateMutability": "view",
      "type": "function",
      "constant": true
    },
    {
      "inputs": [
        {
          "internalType": "uint256",
          "name": "tokenId",
          "type": "uint256"
        }
      ],
      "name": "burn",
      "outputs": [],
      "stateMutability": "nonpayable",
      "type": "function"
    },
    {
      "inputs": [
        {
          "internalType": "uint256",
          "name": "tokenId",
          "type": "uint256"
        }
      ],
      "name": "getApproved",
      "outputs": [
        {
          "internalType": "address",
          "name": "",
          "type": "address"
        }
      ],
      "stateMutability": "view",
      "type": "function",
      "constant": true
    },
    {
      "inputs": [
        {
          "internalType": "address",
          "name": "owner",
          "type": "address"
        },
        {
          "internalType": "address",
          "name": "operator",
          "type": "address"
        }
      ],
      "name": "isApprovedForAll",
      "outputs": [
        {
          "internalType": "bool",
          "name": "",
          "type": "bool"
        }
      ],
      "stateMutability": "view",
      "type": "function",
      "constant": true
    },
    {
      "inputs": [],
      "name": "name",
      "outputs": [
        {
          "internalType": "string",
          "name": "",
          "type": "string"
        }
      ],
      "stateMutability": "view",
      "type": "function",
      "constant": true
    },
    {
      "inputs": [],
      "name": "owner",
      "outputs": [
        {
          "internalType": "address",
          "name": "",
          "type": "address"
        }
      ],
      "stateMutability": "view",
      "type": "function",
      "constant": true
    },
    {
      "inputs": [
        {
          "internalType": "uint256",
          "name": "tokenId",
          "type": "uint256"
        }
      ],
      "name": "ownerOf",
      "outputs": [
        {
          "internalType": "address",
          "name": "",
          "type": "address"
        }
      ],
      "stateMutability": "view",
      "type": "function",
      "constant": true
    },
    {
      "inputs": [],
      "name": "paused",
      "outputs": [
        {
          "internalType": "bool",
          "name": "",
          "type": "bool"
        }
      ],
      "stateMutability": "view",
      "type": "function",
      "constant": true
    },
    {
      "inputs": [],
      "name": "renounceOwnership",
      "outputs": [],
      "stateMutability": "nonpayable",
      "type": "function"
    },
    {
      "inputs": [
        {
          "internalType": "address",
          "name": "from",
          "type": "address"
        },
        {
          "internalType": "address",
          "name": "to",
          "type": "address"
        },
        {
          "internalType": "uint256",
          "name": "tokenId",
          "type": "uint256"
        }
      ],
      "name": "safeTransferFrom",
      "outputs": [],
      "stateMutability": "nonpayable",
      "type": "function"
    },
    {
      "inputs": [
        {
          "internalType": "address",
          "name": "from",
          "type": "address"
        },
        {
          "internalType": "address",
          "name": "to",
          "type": "address"
        },
        {
          "internalType": "uint256",
          "name": "tokenId",
          "type": "uint256"
        },
        {
          "internalType": "bytes",
          "name": "_data",
          "type": "bytes"
        }
      ],
      "name": "safeTransferFrom",
      "outputs": [],
      "stateMutability": "nonpayable",
      "type": "function"
    },
    {
      "inputs": [
        {
          "internalType": "address",
          "name": "operator",
          "type": "address"
        },
        {
          "internalType": "bool",
          "name": "approved",
          "type": "bool"
        }
      ],
      "name": "setApprovalForAll",
      "outputs": [],
      "stateMutability": "nonpayable",
      "type": "function"
    },
    {
      "inputs": [],
      "name": "symbol",
      "outputs": [
        {
          "internalType": "string",
          "name": "",
          "type": "string"
        }
      ],
      "stateMutability": "view",
      "type": "function",
      "constant": true
    },
    {
      "inputs": [
        {
          "internalType": "uint256",
          "name": "index",
          "type": "uint256"
        }
      ],
      "name": "tokenByIndex",
      "outputs": [
        {
          "internalType": "uint256",
          "name": "",
          "type": "uint256"
        }
      ],
      "stateMutability": "view",
      "type": "function",
      "constant": true
    },
    {
      "inputs": [
        {
          "internalType": "address",
          "name": "owner",
          "type": "address"
        },
        {
          "internalType": "uint256",
          "name": "index",
          "type": "uint256"
        }
      ],
      "name": "tokenOfOwnerByIndex",
      "outputs": [
        {
          "internalType": "uint256",
          "name": "",
          "type": "uint256"
        }
      ],
      "stateMutability": "view",
      "type": "function",
      "constant": true
    },
    {
      "inputs": [],
      "name": "totalSupply",
      "outputs": [
        {
          "internalType": "uint256",
          "name": "",
          "type": "uint256"
        }
      ],
      "stateMutability": "view",
      "type": "function",
      "constant": true
    },
    {
      "inputs": [
        {
          "internalType": "address",
          "name": "from",
          "type": "address"
        },
        {
          "internalType": "address",
          "name": "to",
          "type": "address"
        },
        {
          "internalType": "uint256",
          "name": "tokenId",
          "type": "uint256"
        }
      ],
      "name": "transferFrom",
      "outputs": [],
      "stateMutability": "nonpayable",
      "type": "function"
    },
    {
      "inputs": [
        {
          "internalType": "address",
          "name": "newOwner",
          "type": "address"
        }
      ],
      "name": "transferOwnership",
      "outputs": [],
      "stateMutability": "nonpayable",
      "type": "function"
    },
    {
      "inputs": [],
      "name": "pause",
      "outputs": [],
      "stateMutability": "nonpayable",
      "type": "function"
    },
    {
      "inputs": [],
      "name": "unpause",
      "outputs": [],
      "stateMutability": "nonpayable",
      "type": "function"
    },
    {
      "inputs": [
        {
          "internalType": "string",
          "name": "_tokenURI",
          "type": "string"
        },
        {
          "internalType": "uint256",
          "name": "price",
          "type": "uint256"
        },
        {
          "internalType": "address payable",
          "name": "owner",
          "type": "address"
        }
      ],
      "name": "mint",
      "outputs": [],
      "stateMutability": "nonpayable",
      "type": "function"
    },
    {
      "inputs": [
        {
          "internalType": "uint256",
          "name": "tokenId",
          "type": "uint256"
        }
      ],
      "name": "getNftInfo",
      "outputs": [
        {
          "internalType": "string",
          "name": "URI",
          "type": "string"
        },
        {
          "internalType": "address",
          "name": "owner",
          "type": "address"
        },
        {
          "internalType": "uint256",
          "name": "price",
          "type": "uint256"
        }
      ],
      "stateMutability": "view",
      "type": "function",
      "constant": true
    },
    {
      "inputs": [
        {
          "internalType": "uint256",
          "name": "tokenId",
          "type": "uint256"
        }
      ],
      "name": "purchaseNft",
      "outputs": [],
      "stateMutability": "payable",
      "type": "function",
      "payable": true
    },
    {
      "inputs": [
        {
          "internalType": "uint256",
          "name": "tokenId",
          "type": "uint256"
        }
      ],
      "name": "tokenURI",
      "outputs": [
        {
          "internalType": "string",
          "name": "",
          "type": "string"
        }
      ],
      "stateMutability": "view",
      "type": "function",
      "constant": true
    },
    {
      "inputs": [
        {
          "internalType": "bytes4",
          "name": "interfaceId",
          "type": "bytes4"
        }
      ],
      "name": "supportsInterface",
      "outputs": [
        {
          "internalType": "bool",
          "name": "",
          "type": "bool"
        }
      ],
      "stateMutability": "view",
      "type": "function",
      "constant": true
    }
  ],
  "bytecode": "0x60806040523480156200001157600080fd5b506040518060400160405280600681526020017f4f70656e415200000000000000000000000000000000000000000000000000008152506040518060400160405280600581526020017f41524e4654000000000000000000000000000000000000000000000000000000815250816000908051906020019062000096929190620001c9565b508060019080519060200190620000af929190620001c9565b505050620000d2620000c6620000fb60201b60201c565b6200010360201b60201c565b6000600660146101000a81548160ff0219169083151502179055506001600781905550620002de565b600033905090565b6000600660009054906101000a900473ffffffffffffffffffffffffffffffffffffffff16905081600660006101000a81548173ffffffffffffffffffffffffffffffffffffffff021916908373ffffffffffffffffffffffffffffffffffffffff1602179055508173ffffffffffffffffffffffffffffffffffffffff168173ffffffffffffffffffffffffffffffffffffffff167f8be0079c531659141344cd1fd0a4f28419497f9722a3daafe3b4186f6b6457e060405160405180910390a35050565b828054620001d79062000279565b90600052602060002090601f016020900481019282620001fb576000855562000247565b82601f106200021657805160ff191683800117855562000247565b8280016001018555821562000247579182015b828111156200024657825182559160200191906001019062000229565b5b5090506200025691906200025a565b5090565b5b80821115620002755760008160009055506001016200025b565b5090565b600060028204905060018216806200029257607f821691505b60208210811415620002a957620002a8620002af565b5b50919050565b7f4e487b7100000000000000000000000000000000000000000000000000000000600052602260045260246000fd5b61467180620002ee6000396000f3fe6080604052600436106101855760003560e01c806370a08231116100d1578063a22cb4651161008a578063c87b56dd11610064578063c87b56dd1461055d578063d5ec2d831461059a578063e985e9c5146105d9578063f2fde38b1461061657610186565b8063a22cb465146104ef578063a2e66bfc14610518578063b88d4fde1461053457610186565b806370a0823114610405578063715018a6146104425780637af1388c146104595780638456cb59146104825780638da5cb5b1461049957806395d89b41146104c457610186565b80632f745c591161013e57806342966c681161011857806342966c68146103375780634f6ccce7146103605780635c975abb1461039d5780636352211e146103c857610186565b80632f745c59146102ba5780633f4ba83a146102f757806342842e0e1461030e57610186565b806301ffc9a71461019857806306fdde03146101d5578063081812fc14610200578063095ea7b31461023d57806318160ddd1461026657806323b872dd1461029157610186565b5b34801561019257600080fd5b50600080fd5b3480156101a457600080fd5b506101bf60048036038101906101ba9190613139565b61063f565b6040516101cc9190613dcd565b60405180910390f35b3480156101e157600080fd5b506101ea610651565b6040516101f79190613de8565b60405180910390f35b34801561020c57600080fd5b50610227600480360381019061022291906131f7565b6106e3565b6040516102349190613d66565b60405180910390f35b34801561024957600080fd5b50610264600480360381019061025f91906130fd565b610768565b005b34801561027257600080fd5b5061027b610880565b60405161028891906141f8565b60405180910390f35b34801561029d57600080fd5b506102b860048036038101906102b39190612ff7565b61088d565b005b3480156102c657600080fd5b506102e160048036038101906102dc91906130fd565b6108ed565b6040516102ee91906141f8565b60405180910390f35b34801561030357600080fd5b5061030c610992565b005b34801561031a57600080fd5b5061033560048036038101906103309190612ff7565b610a18565b005b34801561034357600080fd5b5061035e600480360381019061035991906131f7565b610a38565b005b34801561036c57600080fd5b50610387600480360381019061038291906131f7565b610a94565b60405161039491906141f8565b60405180910390f35b3480156103a957600080fd5b506103b2610b2b565b6040516103bf9190613dcd565b60405180910390f35b3480156103d457600080fd5b506103ef60048036038101906103ea91906131f7565b610b42565b6040516103fc9190613d66565b60405180910390f35b34801561041157600080fd5b5061042c60048036038101906104279190612f92565b610bf4565b60405161043991906141f8565b60405180910390f35b34801561044e57600080fd5b50610457610cac565b005b34801561046557600080fd5b50610480600480360381019061047b919061318b565b610d34565b005b34801561048e57600080fd5b50610497610e14565b005b3480156104a557600080fd5b506104ae610e9a565b6040516104bb9190613d66565b60405180910390f35b3480156104d057600080fd5b506104d9610ec4565b6040516104e69190613de8565b60405180910390f35b3480156104fb57600080fd5b50610516600480360381019061051191906130c1565b610f56565b005b610532600480360381019061052d91906131f7565b6110d7565b005b34801561054057600080fd5b5061055b60048036038101906105569190613046565b61137b565b005b34801561056957600080fd5b50610584600480360381019061057f91906131f7565b6113dd565b6040516105919190613de8565b60405180910390f35b3480156105a657600080fd5b506105c160048036038101906105bc91906131f7565b6113ef565b6040516105d093929190613e0a565b60405180910390f35b3480156105e557600080fd5b5061060060048036038101906105fb9190612fbb565b611478565b60405161060d9190613dcd565b60405180910390f35b34801561062257600080fd5b5061063d60048036038101906106389190612f92565b61150c565b005b600061064a82611604565b9050919050565b6060600080546106609061444f565b80601f016020809104026020016040519081016040528092919081815260200182805461068c9061444f565b80156106d95780601f106106ae576101008083540402835291602001916106d9565b820191906000526020600020905b8154815290600101906020018083116106bc57829003601f168201915b5050505050905090565b60006106ee8261167e565b61072d576040517f08c379a000000000000000000000000000000000000000000000000000000000815260040161072490614098565b60405180910390fd5b6004600083815260200190815260200160002060009054906101000a900473ffffffffffffffffffffffffffffffffffffffff169050919050565b600061077382610b42565b90508073ffffffffffffffffffffffffffffffffffffffff168373ffffffffffffffffffffffffffffffffffffffff1614156107e4576040517f08c379a00000000000000000000000000000000000000000000000000000000081526004016107db90614118565b60405180910390fd5b8073ffffffffffffffffffffffffffffffffffffffff166108036116ea565b73ffffffffffffffffffffffffffffffffffffffff16148061083257506108318161082c6116ea565b611478565b5b610871576040517f08c379a000000000000000000000000000000000000000000000000000000000815260040161086890613fb8565b60405180910390fd5b61087b83836116f2565b505050565b6000600a80549050905090565b61089e6108986116ea565b826117ab565b6108dd576040517f08c379a00000000000000000000000000000000000000000000000000000000081526004016108d490614138565b60405180910390fd5b6108e8838383611889565b505050565b60006108f883610bf4565b8210610939576040517f08c379a000000000000000000000000000000000000000000000000000000000815260040161093090613eb8565b60405180910390fd5b600860008473ffffffffffffffffffffffffffffffffffffffff1673ffffffffffffffffffffffffffffffffffffffff168152602001908152602001600020600083815260200190815260200160002054905092915050565b61099a6116ea565b73ffffffffffffffffffffffffffffffffffffffff166109b8610e9a565b73ffffffffffffffffffffffffffffffffffffffff1614610a0e576040517f08c379a0000000000000000000000000000000000000000000000000000000008152600401610a05906140b8565b60405180910390fd5b610a16611ae5565b565b610a338383836040518060200160405280600081525061137b565b505050565b610a49610a436116ea565b826117ab565b610a88576040517f08c379a0000000000000000000000000000000000000000000000000000000008152600401610a7f906141d8565b60405180910390fd5b610a9181611b87565b50565b6000610a9e610880565b8210610adf576040517f08c379a0000000000000000000000000000000000000000000000000000000008152600401610ad690614158565b60405180910390fd5b600a8281548110610b19577f4e487b7100000000000000000000000000000000000000000000000000000000600052603260045260246000fd5b90600052602060002001549050919050565b6000600660149054906101000a900460ff16905090565b6000806002600084815260200190815260200160002060009054906101000a900473ffffffffffffffffffffffffffffffffffffffff169050600073ffffffffffffffffffffffffffffffffffffffff168173ffffffffffffffffffffffffffffffffffffffff161415610beb576040517f08c379a0000000000000000000000000000000000000000000000000000000008152600401610be290613ff8565b60405180910390fd5b80915050919050565b60008073ffffffffffffffffffffffffffffffffffffffff168273ffffffffffffffffffffffffffffffffffffffff161415610c65576040517f08c379a0000000000000000000000000000000000000000000000000000000008152600401610c5c90613fd8565b60405180910390fd5b600360008373ffffffffffffffffffffffffffffffffffffffff1673ffffffffffffffffffffffffffffffffffffffff168152602001908152602001600020549050919050565b610cb46116ea565b73ffffffffffffffffffffffffffffffffffffffff16610cd2610e9a565b73ffffffffffffffffffffffffffffffffffffffff1614610d28576040517f08c379a0000000000000000000000000000000000000000000000000000000008152600401610d1f906140b8565b60405180910390fd5b610d326000611bdb565b565b610d3c610b2b565b15610d7c576040517f08c379a0000000000000000000000000000000000000000000000000000000008152600401610d7390613f98565b60405180910390fd5b610d86600d611ca1565b6000610d92600d611cb7565b90506000600e60008381526020019081526020016000209050838160010181905550610dbe8383611cc5565b610e0c8287878080601f016020809104026020016040519081016040528093929190818152602001838380828437600081840152601f19601f82011690508083019250505050505050611ce3565b505050505050565b610e1c6116ea565b73ffffffffffffffffffffffffffffffffffffffff16610e3a610e9a565b73ffffffffffffffffffffffffffffffffffffffff1614610e90576040517f08c379a0000000000000000000000000000000000000000000000000000000008152600401610e87906140b8565b60405180910390fd5b610e98611d57565b565b6000600660009054906101000a900473ffffffffffffffffffffffffffffffffffffffff16905090565b606060018054610ed39061444f565b80601f0160208091040260200160405190810160405280929190818152602001828054610eff9061444f565b8015610f4c5780601f10610f2157610100808354040283529160200191610f4c565b820191906000526020600020905b815481529060010190602001808311610f2f57829003601f168201915b5050505050905090565b610f5e6116ea565b73ffffffffffffffffffffffffffffffffffffffff168273ffffffffffffffffffffffffffffffffffffffff161415610fcc576040517f08c379a0000000000000000000000000000000000000000000000000000000008152600401610fc390613f58565b60405180910390fd5b8060056000610fd96116ea565b73ffffffffffffffffffffffffffffffffffffffff1673ffffffffffffffffffffffffffffffffffffffff16815260200190815260200160002060008473ffffffffffffffffffffffffffffffffffffffff1673ffffffffffffffffffffffffffffffffffffffff16815260200190815260200160002060006101000a81548160ff0219169083151502179055508173ffffffffffffffffffffffffffffffffffffffff166110866116ea565b73ffffffffffffffffffffffffffffffffffffffff167f17307eab39ab6107e8899845ad3d59bd9653f200f220920489ca2b5937696c31836040516110cb9190613dcd565b60405180910390a35050565b6002600754141561111d576040517f08c379a0000000000000000000000000000000000000000000000000000000008152600401611114906141b8565b60405180910390fd5b600260078190555061112e8161167e565b61116d576040517f08c379a000000000000000000000000000000000000000000000000000000000815260040161116490614038565b60405180910390fd5b600e6000828152602001908152602001600020600101543410156111c6576040517f08c379a00000000000000000000000000000000000000000000000000000000081526004016111bd90614198565b60405180910390fd5b600e600082815260200190815260200160002060030160003373ffffffffffffffffffffffffffffffffffffffff1673ffffffffffffffffffffffffffffffffffffffff16815260200190815260200160002060009054906101000a900460ff1615611267576040517f08c379a000000000000000000000000000000000000000000000000000000000815260040161125e90614178565b60405180910390fd5b61127081610b42565b73ffffffffffffffffffffffffffffffffffffffff166108fc349081150290604051600060405180830381858888f193505050501580156112b5573d6000803e3d6000fd5b506001600e600083815260200190815260200160002060030160003373ffffffffffffffffffffffffffffffffffffffff1673ffffffffffffffffffffffffffffffffffffffff16815260200190815260200160002060006101000a81548160ff0219169083151502179055507f90a2e491e581905298c5098efde4d8766a9d891f5b7741ea79d0c48d2b158f2f600e600083815260200190815260200160002060000134604051611368929190613e48565b60405180910390a1600160078190555050565b61138c6113866116ea565b836117ab565b6113cb576040517f08c379a00000000000000000000000000000000000000000000000000000000081526004016113c290614138565b60405180910390fd5b6113d784848484611dfa565b50505050565b60606113e882611e56565b9050919050565b60606000806113fd8461167e565b61143c576040517f08c379a000000000000000000000000000000000000000000000000000000000815260040161143390613e98565b60405180910390fd5b600061144785611e56565b90508061145386610b42565b600e600088815260200190815260200160002060010154935093509350509193909250565b6000600560008473ffffffffffffffffffffffffffffffffffffffff1673ffffffffffffffffffffffffffffffffffffffff16815260200190815260200160002060008373ffffffffffffffffffffffffffffffffffffffff1673ffffffffffffffffffffffffffffffffffffffff16815260200190815260200160002060009054906101000a900460ff16905092915050565b6115146116ea565b73ffffffffffffffffffffffffffffffffffffffff16611532610e9a565b73ffffffffffffffffffffffffffffffffffffffff1614611588576040517f08c379a000000000000000000000000000000000000000000000000000000000815260040161157f906140b8565b60405180910390fd5b600073ffffffffffffffffffffffffffffffffffffffff168173ffffffffffffffffffffffffffffffffffffffff1614156115f8576040517f08c379a00000000000000000000000000000000000000000000000000000000081526004016115ef90613ef8565b60405180910390fd5b61160181611bdb565b50565b60007f780e9d63000000000000000000000000000000000000000000000000000000007bffffffffffffffffffffffffffffffffffffffffffffffffffffffff1916827bffffffffffffffffffffffffffffffffffffffffffffffffffffffff19161480611677575061167682611fa8565b5b9050919050565b60008073ffffffffffffffffffffffffffffffffffffffff166002600084815260200190815260200160002060009054906101000a900473ffffffffffffffffffffffffffffffffffffffff1673ffffffffffffffffffffffffffffffffffffffff1614159050919050565b600033905090565b816004600083815260200190815260200160002060006101000a81548173ffffffffffffffffffffffffffffffffffffffff021916908373ffffffffffffffffffffffffffffffffffffffff160217905550808273ffffffffffffffffffffffffffffffffffffffff1661176583610b42565b73ffffffffffffffffffffffffffffffffffffffff167f8c5be1e5ebec7d5bd14f71427d1e84f3dd0314c0f7b2291e5b200ac8c7c3b92560405160405180910390a45050565b60006117b68261167e565b6117f5576040517f08c379a00000000000000000000000000000000000000000000000000000000081526004016117ec90613f78565b60405180910390fd5b600061180083610b42565b90508073ffffffffffffffffffffffffffffffffffffffff168473ffffffffffffffffffffffffffffffffffffffff16148061186f57508373ffffffffffffffffffffffffffffffffffffffff16611857846106e3565b73ffffffffffffffffffffffffffffffffffffffff16145b80611880575061187f8185611478565b5b91505092915050565b8273ffffffffffffffffffffffffffffffffffffffff166118a982610b42565b73ffffffffffffffffffffffffffffffffffffffff16146118ff576040517f08c379a00000000000000000000000000000000000000000000000000000000081526004016118f6906140d8565b60405180910390fd5b600073ffffffffffffffffffffffffffffffffffffffff168273ffffffffffffffffffffffffffffffffffffffff16141561196f576040517f08c379a000000000000000000000000000000000000000000000000000000000815260040161196690613f38565b60405180910390fd5b61197a83838361208a565b6119856000826116f2565b6001600360008573ffffffffffffffffffffffffffffffffffffffff1673ffffffffffffffffffffffffffffffffffffffff16815260200190815260200160002060008282546119d59190614353565b925050819055506001600360008473ffffffffffffffffffffffffffffffffffffffff1673ffffffffffffffffffffffffffffffffffffffff1681526020019081526020016000206000828254611a2c91906142cc565b92505081905550816002600083815260200190815260200160002060006101000a81548173ffffffffffffffffffffffffffffffffffffffff021916908373ffffffffffffffffffffffffffffffffffffffff160217905550808273ffffffffffffffffffffffffffffffffffffffff168473ffffffffffffffffffffffffffffffffffffffff167fddf252ad1be2c89b69c2b068fc378daa952ba7f163c4a11628f55a4df523b3ef60405160405180910390a4505050565b611aed610b2b565b611b2c576040517f08c379a0000000000000000000000000000000000000000000000000000000008152600401611b2390613e78565b60405180910390fd5b6000600660146101000a81548160ff0219169083151502179055507f5db9ee0a495bf2e6ff9c91a7834c1ba4fdd244a5e8aa4e537bd38aeae4b073aa611b706116ea565b604051611b7d9190613d66565b60405180910390a1565b611b8f610b2b565b15611bcf576040517f08c379a0000000000000000000000000000000000000000000000000000000008152600401611bc690613f98565b60405180910390fd5b611bd8816120e2565b50565b6000600660009054906101000a900473ffffffffffffffffffffffffffffffffffffffff16905081600660006101000a81548173ffffffffffffffffffffffffffffffffffffffff021916908373ffffffffffffffffffffffffffffffffffffffff1602179055508173ffffffffffffffffffffffffffffffffffffffff168173ffffffffffffffffffffffffffffffffffffffff167f8be0079c531659141344cd1fd0a4f28419497f9722a3daafe3b4186f6b6457e060405160405180910390a35050565b6001816000016000828254019250508190555050565b600081600001549050919050565b611cdf828260405180602001604052806000815250612135565b5050565b611cec8261167e565b611d2b576040517f08c379a0000000000000000000000000000000000000000000000000000000008152600401611d2290614018565b60405180910390fd5b80600c60008481526020019081526020016000209080519060200190611d52929190612d7f565b505050565b611d5f610b2b565b15611d9f576040517f08c379a0000000000000000000000000000000000000000000000000000000008152600401611d9690613f98565b60405180910390fd5b6001600660146101000a81548160ff0219169083151502179055507f62e78cea01bee320cd4e420270b5ea74000d11b0c9f74754ebdbfc544b05a258611de36116ea565b604051611df09190613d66565b60405180910390a1565b611e05848484611889565b611e1184848484612190565b611e50576040517f08c379a0000000000000000000000000000000000000000000000000000000008152600401611e4790613ed8565b60405180910390fd5b50505050565b6060611e618261167e565b611ea0576040517f08c379a0000000000000000000000000000000000000000000000000000000008152600401611e9790614078565b60405180910390fd5b6000600c60008481526020019081526020016000208054611ec09061444f565b80601f0160208091040260200160405190810160405280929190818152602001828054611eec9061444f565b8015611f395780601f10611f0e57610100808354040283529160200191611f39565b820191906000526020600020905b815481529060010190602001808311611f1c57829003601f168201915b505050505090506000611f4a612327565b9050600081511415611f60578192505050611fa3565b600082511115611f95578082604051602001611f7d929190613d42565b60405160208183030381529060405292505050611fa3565b611f9e8461233e565b925050505b919050565b60007f80ac58cd000000000000000000000000000000000000000000000000000000007bffffffffffffffffffffffffffffffffffffffffffffffffffffffff1916827bffffffffffffffffffffffffffffffffffffffffffffffffffffffff1916148061207357507f5b5e139f000000000000000000000000000000000000000000000000000000007bffffffffffffffffffffffffffffffffffffffffffffffffffffffff1916827bffffffffffffffffffffffffffffffffffffffffffffffffffffffff1916145b806120835750612082826123e5565b5b9050919050565b612092610b2b565b156120d2576040517f08c379a00000000000000000000000000000000000000000000000000000000081526004016120c990613f98565b60405180910390fd5b6120dd83838361244f565b505050565b6120eb81612563565b6000600c6000838152602001908152602001600020805461210b9061444f565b90501461213257600c600082815260200190815260200160002060006121319190612e05565b5b50565b61213f8383612674565b61214c6000848484612190565b61218b576040517f08c379a000000000000000000000000000000000000000000000000000000000815260040161218290613ed8565b60405180910390fd5b505050565b60006121b18473ffffffffffffffffffffffffffffffffffffffff16612842565b1561231a578373ffffffffffffffffffffffffffffffffffffffff1663150b7a026121da6116ea565b8786866040518563ffffffff1660e01b81526004016121fc9493929190613d81565b602060405180830381600087803b15801561221657600080fd5b505af192505050801561224757506040513d601f19601f820116820180604052508101906122449190613162565b60015b6122ca573d8060008114612277576040519150601f19603f3d011682016040523d82523d6000602084013e61227c565b606091505b506000815114156122c2576040517f08c379a00000000000000000000000000000000000000000000000000000000081526004016122b990613ed8565b60405180910390fd5b805181602001fd5b63150b7a0260e01b7bffffffffffffffffffffffffffffffffffffffffffffffffffffffff1916817bffffffffffffffffffffffffffffffffffffffffffffffffffffffff19161491505061231f565b600190505b949350505050565b606060405180602001604052806000815250905090565b60606123498261167e565b612388576040517f08c379a000000000000000000000000000000000000000000000000000000000815260040161237f906140f8565b60405180910390fd5b6000612392612327565b905060008151116123b257604051806020016040528060008152506123dd565b806123bc84612855565b6040516020016123cd929190613d42565b6040516020818303038152906040525b915050919050565b60007f01ffc9a7000000000000000000000000000000000000000000000000000000007bffffffffffffffffffffffffffffffffffffffffffffffffffffffff1916827bffffffffffffffffffffffffffffffffffffffffffffffffffffffff1916149050919050565b61245a838383612a02565b600073ffffffffffffffffffffffffffffffffffffffff168373ffffffffffffffffffffffffffffffffffffffff16141561249d5761249881612a07565b6124dc565b8173ffffffffffffffffffffffffffffffffffffffff168373ffffffffffffffffffffffffffffffffffffffff16146124db576124da8382612a50565b5b5b600073ffffffffffffffffffffffffffffffffffffffff168273ffffffffffffffffffffffffffffffffffffffff16141561251f5761251a81612bbd565b61255e565b8273ffffffffffffffffffffffffffffffffffffffff168273ffffffffffffffffffffffffffffffffffffffff161461255d5761255c8282612d00565b5b5b505050565b600061256e82610b42565b905061257c8160008461208a565b6125876000836116f2565b6001600360008373ffffffffffffffffffffffffffffffffffffffff1673ffffffffffffffffffffffffffffffffffffffff16815260200190815260200160002060008282546125d79190614353565b925050819055506002600083815260200190815260200160002060006101000a81549073ffffffffffffffffffffffffffffffffffffffff021916905581600073ffffffffffffffffffffffffffffffffffffffff168273ffffffffffffffffffffffffffffffffffffffff167fddf252ad1be2c89b69c2b068fc378daa952ba7f163c4a11628f55a4df523b3ef60405160405180910390a45050565b600073ffffffffffffffffffffffffffffffffffffffff168273ffffffffffffffffffffffffffffffffffffffff1614156126e4576040517f08c379a00000000000000000000000000000000000000000000000000000000081526004016126db90614058565b60405180910390fd5b6126ed8161167e565b1561272d576040517f08c379a000000000000000000000000000000000000000000000000000000000815260040161272490613f18565b60405180910390fd5b6127396000838361208a565b6001600360008473ffffffffffffffffffffffffffffffffffffffff1673ffffffffffffffffffffffffffffffffffffffff168152602001908152602001600020600082825461278991906142cc565b92505081905550816002600083815260200190815260200160002060006101000a81548173ffffffffffffffffffffffffffffffffffffffff021916908373ffffffffffffffffffffffffffffffffffffffff160217905550808273ffffffffffffffffffffffffffffffffffffffff16600073ffffffffffffffffffffffffffffffffffffffff167fddf252ad1be2c89b69c2b068fc378daa952ba7f163c4a11628f55a4df523b3ef60405160405180910390a45050565b600080823b905060008111915050919050565b6060600082141561289d576040518060400160405280600181526020017f300000000000000000000000000000000000000000000000000000000000000081525090506129fd565b600082905060005b600082146128cf5780806128b890614481565b915050600a826128c89190614322565b91506128a5565b60008167ffffffffffffffff811115612911577f4e487b7100000000000000000000000000000000000000000000000000000000600052604160045260246000fd5b6040519080825280601f01601f1916602001820160405280156129435781602001600182028036833780820191505090505b5090505b600085146129f65760018261295c9190614353565b9150600a8561296b91906144ca565b603061297791906142cc565b60f81b8183815181106129b3577f4e487b7100000000000000000000000000000000000000000000000000000000600052603260045260246000fd5b60200101907effffffffffffffffffffffffffffffffffffffffffffffffffffffffffffff1916908160001a905350600a856129ef9190614322565b9450612947565b8093505050505b919050565b505050565b600a80549050600b600083815260200190815260200160002081905550600a81908060018154018082558091505060019003906000526020600020016000909190919091505550565b60006001612a5d84610bf4565b612a679190614353565b9050600060096000848152602001908152602001600020549050818114612b4c576000600860008673ffffffffffffffffffffffffffffffffffffffff1673ffffffffffffffffffffffffffffffffffffffff168152602001908152602001600020600084815260200190815260200160002054905080600860008773ffffffffffffffffffffffffffffffffffffffff1673ffffffffffffffffffffffffffffffffffffffff168152602001908152602001600020600084815260200190815260200160002081905550816009600083815260200190815260200160002081905550505b6009600084815260200190815260200160002060009055600860008573ffffffffffffffffffffffffffffffffffffffff1673ffffffffffffffffffffffffffffffffffffffff16815260200190815260200160002060008381526020019081526020016000206000905550505050565b60006001600a80549050612bd19190614353565b90506000600b60008481526020019081526020016000205490506000600a8381548110612c27577f4e487b7100000000000000000000000000000000000000000000000000000000600052603260045260246000fd5b9060005260206000200154905080600a8381548110612c6f577f4e487b7100000000000000000000000000000000000000000000000000000000600052603260045260246000fd5b906000526020600020018190555081600b600083815260200190815260200160002081905550600b600085815260200190815260200160002060009055600a805480612ce4577f4e487b7100000000000000000000000000000000000000000000000000000000600052603160045260246000fd5b6001900381819060005260206000200160009055905550505050565b6000612d0b83610bf4565b905081600860008573ffffffffffffffffffffffffffffffffffffffff1673ffffffffffffffffffffffffffffffffffffffff168152602001908152602001600020600083815260200190815260200160002081905550806009600084815260200190815260200160002081905550505050565b828054612d8b9061444f565b90600052602060002090601f016020900481019282612dad5760008555612df4565b82601f10612dc657805160ff1916838001178555612df4565b82800160010185558215612df4579182015b82811115612df3578251825591602001919060010190612dd8565b5b509050612e019190612e45565b5090565b508054612e119061444f565b6000825580601f10612e235750612e42565b601f016020900490600052602060002090810190612e419190612e45565b5b50565b5b80821115612e5e576000816000905550600101612e46565b5090565b6000612e75612e7084614244565b614213565b905082815260208101848484011115612e8d57600080fd5b612e9884828561440d565b509392505050565b600081359050612eaf816145c8565b92915050565b600081359050612ec4816145df565b92915050565b600081359050612ed9816145f6565b92915050565b600081359050612eee8161460d565b92915050565b600081519050612f038161460d565b92915050565b600082601f830112612f1a57600080fd5b8135612f2a848260208601612e62565b91505092915050565b60008083601f840112612f4557600080fd5b8235905067ffffffffffffffff811115612f5e57600080fd5b602083019150836001820283011115612f7657600080fd5b9250929050565b600081359050612f8c81614624565b92915050565b600060208284031215612fa457600080fd5b6000612fb284828501612ea0565b91505092915050565b60008060408385031215612fce57600080fd5b6000612fdc85828601612ea0565b9250506020612fed85828601612ea0565b9150509250929050565b60008060006060848603121561300c57600080fd5b600061301a86828701612ea0565b935050602061302b86828701612ea0565b925050604061303c86828701612f7d565b9150509250925092565b6000806000806080858703121561305c57600080fd5b600061306a87828801612ea0565b945050602061307b87828801612ea0565b935050604061308c87828801612f7d565b925050606085013567ffffffffffffffff8111156130a957600080fd5b6130b587828801612f09565b91505092959194509250565b600080604083850312156130d457600080fd5b60006130e285828601612ea0565b92505060206130f385828601612eca565b9150509250929050565b6000806040838503121561311057600080fd5b600061311e85828601612ea0565b925050602061312f85828601612f7d565b9150509250929050565b60006020828403121561314b57600080fd5b600061315984828501612edf565b91505092915050565b60006020828403121561317457600080fd5b600061318284828501612ef4565b91505092915050565b600080600080606085870312156131a157600080fd5b600085013567ffffffffffffffff8111156131bb57600080fd5b6131c787828801612f33565b945094505060206131da87828801612f7d565b92505060406131eb87828801612eb5565b91505092959194509250565b60006020828403121561320957600080fd5b600061321784828501612f7d565b91505092915050565b61322981614387565b82525050565b613238816143ab565b82525050565b600061324982614289565b613253818561429f565b935061326381856020860161441c565b61326c816145b7565b840191505092915050565b600061328282614294565b61328c81856142b0565b935061329c81856020860161441c565b6132a5816145b7565b840191505092915050565b60006132bb82614294565b6132c581856142c1565b93506132d581856020860161441c565b80840191505092915050565b600081546132ee8161444f565b6132f881866142b0565b94506001821660008114613313576001811461332557613358565b60ff1983168652602086019350613358565b61332e85614274565b60005b8381101561335057815481890152600182019150602081019050613331565b808801955050505b50505092915050565b600061336e6014836142b0565b91507f5061757361626c653a206e6f74207061757365640000000000000000000000006000830152602082019050919050565b60006133ae6025836142b0565b91507f4e6674496e666f20717565727920666f72206e6f6e6578697374656e7420746f60008301527f6b656e49640000000000000000000000000000000000000000000000000000006020830152604082019050919050565b6000613414602b836142b0565b91507f455243373231456e756d657261626c653a206f776e657220696e646578206f7560008301527f74206f6620626f756e64730000000000000000000000000000000000000000006020830152604082019050919050565b600061347a6032836142b0565b91507f4552433732313a207472616e7366657220746f206e6f6e20455243373231526560008301527f63656976657220696d706c656d656e74657200000000000000000000000000006020830152604082019050919050565b60006134e06026836142b0565b91507f4f776e61626c653a206e6577206f776e657220697320746865207a65726f206160008301527f64647265737300000000000000000000000000000000000000000000000000006020830152604082019050919050565b6000613546601c836142b0565b91507f4552433732313a20746f6b656e20616c7265616479206d696e746564000000006000830152602082019050919050565b60006135866024836142b0565b91507f4552433732313a207472616e7366657220746f20746865207a65726f2061646460008301527f72657373000000000000000000000000000000000000000000000000000000006020830152604082019050919050565b60006135ec6019836142b0565b91507f4552433732313a20617070726f766520746f2063616c6c6572000000000000006000830152602082019050919050565b600061362c602c836142b0565b91507f4552433732313a206f70657261746f7220717565727920666f72206e6f6e657860008301527f697374656e7420746f6b656e00000000000000000000000000000000000000006020830152604082019050919050565b60006136926010836142b0565b91507f5061757361626c653a20706175736564000000000000000000000000000000006000830152602082019050919050565b60006136d26038836142b0565b91507f4552433732313a20617070726f76652063616c6c6572206973206e6f74206f7760008301527f6e6572206e6f7220617070726f76656420666f7220616c6c00000000000000006020830152604082019050919050565b6000613738602a836142b0565b91507f4552433732313a2062616c616e636520717565727920666f7220746865207a6560008301527f726f2061646472657373000000000000000000000000000000000000000000006020830152604082019050919050565b600061379e6029836142b0565b91507f4552433732313a206f776e657220717565727920666f72206e6f6e657869737460008301527f656e7420746f6b656e00000000000000000000000000000000000000000000006020830152604082019050919050565b6000613804602e836142b0565b91507f45524337323155524953746f726167653a2055524920736574206f66206e6f6e60008301527f6578697374656e7420746f6b656e0000000000000000000000000000000000006020830152604082019050919050565b600061386a6029836142b0565b91507f70757263686173654e667420717565727920666f72206e6f6e6578697374656e60008301527f7420746f6b656e496400000000000000000000000000000000000000000000006020830152604082019050919050565b60006138d06020836142b0565b91507f4552433732313a206d696e7420746f20746865207a65726f20616464726573736000830152602082019050919050565b60006139106031836142b0565b91507f45524337323155524953746f726167653a2055524920717565727920666f722060008301527f6e6f6e6578697374656e7420746f6b656e0000000000000000000000000000006020830152604082019050919050565b6000613976602c836142b0565b91507f4552433732313a20617070726f76656420717565727920666f72206e6f6e657860008301527f697374656e7420746f6b656e00000000000000000000000000000000000000006020830152604082019050919050565b60006139dc6020836142b0565b91507f4f776e61626c653a2063616c6c6572206973206e6f7420746865206f776e65726000830152602082019050919050565b6000613a1c6029836142b0565b91507f4552433732313a207472616e73666572206f6620746f6b656e2074686174206960008301527f73206e6f74206f776e00000000000000000000000000000000000000000000006020830152604082019050919050565b6000613a82602f836142b0565b91507f4552433732314d657461646174613a2055524920717565727920666f72206e6f60008301527f6e6578697374656e7420746f6b656e00000000000000000000000000000000006020830152604082019050919050565b6000613ae86021836142b0565b91507f4552433732313a20617070726f76616c20746f2063757272656e74206f776e6560008301527f72000000000000000000000000000000000000000000000000000000000000006020830152604082019050919050565b6000613b4e6031836142b0565b91507f4552433732313a207472616e736665722063616c6c6572206973206e6f74206f60008301527f776e6572206e6f7220617070726f7665640000000000000000000000000000006020830152604082019050919050565b6000613bb4602c836142b0565b91507f455243373231456e756d657261626c653a20676c6f62616c20696e646578206f60008301527f7574206f6620626f756e647300000000000000000000000000000000000000006020830152604082019050919050565b6000613c1a6015836142b0565b91507f4e465420616c72656164792070757263686173656400000000000000000000006000830152602082019050919050565b6000613c5a601a836142b0565b91507f4e6f7420656e6f7567682045746820746f2070757263686173650000000000006000830152602082019050919050565b6000613c9a601f836142b0565b91507f5265656e7472616e637947756172643a207265656e7472616e742063616c6c006000830152602082019050919050565b6000613cda6030836142b0565b91507f4552433732314275726e61626c653a2063616c6c6572206973206e6f74206f7760008301527f6e6572206e6f7220617070726f766564000000000000000000000000000000006020830152604082019050919050565b613d3c81614403565b82525050565b6000613d4e82856132b0565b9150613d5a82846132b0565b91508190509392505050565b6000602082019050613d7b6000830184613220565b92915050565b6000608082019050613d966000830187613220565b613da36020830186613220565b613db06040830185613d33565b8181036060830152613dc2818461323e565b905095945050505050565b6000602082019050613de2600083018461322f565b92915050565b60006020820190508181036000830152613e028184613277565b905092915050565b60006060820190508181036000830152613e248186613277565b9050613e336020830185613220565b613e406040830184613d33565b949350505050565b60006040820190508181036000830152613e6281856132e1565b9050613e716020830184613d33565b9392505050565b60006020820190508181036000830152613e9181613361565b9050919050565b60006020820190508181036000830152613eb1816133a1565b9050919050565b60006020820190508181036000830152613ed181613407565b9050919050565b60006020820190508181036000830152613ef18161346d565b9050919050565b60006020820190508181036000830152613f11816134d3565b9050919050565b60006020820190508181036000830152613f3181613539565b9050919050565b60006020820190508181036000830152613f5181613579565b9050919050565b60006020820190508181036000830152613f71816135df565b9050919050565b60006020820190508181036000830152613f918161361f565b9050919050565b60006020820190508181036000830152613fb181613685565b9050919050565b60006020820190508181036000830152613fd1816136c5565b9050919050565b60006020820190508181036000830152613ff18161372b565b9050919050565b6000602082019050818103600083015261401181613791565b9050919050565b60006020820190508181036000830152614031816137f7565b9050919050565b600060208201905081810360008301526140518161385d565b9050919050565b60006020820190508181036000830152614071816138c3565b9050919050565b6000602082019050818103600083015261409181613903565b9050919050565b600060208201905081810360008301526140b181613969565b9050919050565b600060208201905081810360008301526140d1816139cf565b9050919050565b600060208201905081810360008301526140f181613a0f565b9050919050565b6000602082019050818103600083015261411181613a75565b9050919050565b6000602082019050818103600083015261413181613adb565b9050919050565b6000602082019050818103600083015261415181613b41565b9050919050565b6000602082019050818103600083015261417181613ba7565b9050919050565b6000602082019050818103600083015261419181613c0d565b9050919050565b600060208201905081810360008301526141b181613c4d565b9050919050565b600060208201905081810360008301526141d181613c8d565b9050919050565b600060208201905081810360008301526141f181613ccd565b9050919050565b600060208201905061420d6000830184613d33565b92915050565b6000604051905081810181811067ffffffffffffffff8211171561423a57614239614588565b5b8060405250919050565b600067ffffffffffffffff82111561425f5761425e614588565b5b601f19601f8301169050602081019050919050565b60008190508160005260206000209050919050565b600081519050919050565b600081519050919050565b600082825260208201905092915050565b600082825260208201905092915050565b600081905092915050565b60006142d782614403565b91506142e283614403565b9250827fffffffffffffffffffffffffffffffffffffffffffffffffffffffffffffffff03821115614317576143166144fb565b5b828201905092915050565b600061432d82614403565b915061433883614403565b9250826143485761434761452a565b5b828204905092915050565b600061435e82614403565b915061436983614403565b92508282101561437c5761437b6144fb565b5b828203905092915050565b6000614392826143e3565b9050919050565b60006143a4826143e3565b9050919050565b60008115159050919050565b60007fffffffff0000000000000000000000000000000000000000000000000000000082169050919050565b600073ffffffffffffffffffffffffffffffffffffffff82169050919050565b6000819050919050565b82818337600083830152505050565b60005b8381101561443a57808201518184015260208101905061441f565b83811115614449576000848401525b50505050565b6000600282049050600182168061446757607f821691505b6020821081141561447b5761447a614559565b5b50919050565b600061448c82614403565b91507fffffffffffffffffffffffffffffffffffffffffffffffffffffffffffffffff8214156144bf576144be6144fb565b5b600182019050919050565b60006144d582614403565b91506144e083614403565b9250826144f0576144ef61452a565b5b828206905092915050565b7f4e487b7100000000000000000000000000000000000000000000000000000000600052601160045260246000fd5b7f4e487b7100000000000000000000000000000000000000000000000000000000600052601260045260246000fd5b7f4e487b7100000000000000000000000000000000000000000000000000000000600052602260045260246000fd5b7f4e487b7100000000000000000000000000000000000000000000000000000000600052604160045260246000fd5b6000601f19601f8301169050919050565b6145d181614387565b81146145dc57600080fd5b50565b6145e881614399565b81146145f357600080fd5b50565b6145ff816143ab565b811461460a57600080fd5b50565b614616816143b7565b811461462157600080fd5b50565b61462d81614403565b811461463857600080fd5b5056fea2646970667358221220270585a6a923136105daff19ad7a62e47c1d04178f0b2a6f8e787b9b03a89f4964736f6c63430008000033",
  "immutableReferences": {},
  "source": "// SPDX-License-Identifier: MIT\npragma solidity ^0.8.0;\n\nimport \"@openzeppelin/contracts/token/ERC721/ERC721.sol\";\nimport \"@openzeppelin/contracts/token/ERC721/extensions/ERC721Enumerable.sol\";\nimport \"@openzeppelin/contracts/token/ERC721/extensions/ERC721Burnable.sol\";\nimport \"@openzeppelin/contracts/token/ERC721/extensions/ERC721URIStorage.sol\";\nimport \"@openzeppelin/contracts/utils/Counters.sol\";\nimport \"@openzeppelin/contracts/access/Ownable.sol\";\nimport \"@openzeppelin/contracts/security/Pausable.sol\";\nimport \"@openzeppelin/contracts/security/ReentrancyGuard.sol\";\n\n///@title OpenAR Contract\n///@author Tyler Woolcott\n///@notice You can use this contract to mint and transfer AR NFTs \ncontract OpenAR is ERC721(\"OpenAR\", \"ARNFT\"), Ownable, Pausable, ReentrancyGuard, ERC721Enumerable, ERC721Burnable, ERC721URIStorage {\n  using Counters for Counters.Counter;\n  Counters.Counter private _tokenIds;\n\n  struct NftInfo {\n      string NftURI;\n      uint256 price;    // Price in wei\n      uint256 purchasedNftCounter;\n      mapping(address => bool) purchasedNfts;\n  }\n\n  mapping(uint256 => NftInfo) private _nftInfo;\n\n  event NftPurchased(string NftURI, uint256 amount);\n\n/// @notice pauses the contract. \n/// @dev Inherits _pause() function from Pausable.sol and the onlyOwner modifier from Ownable.sol\n    function pause() public onlyOwner {\n      _pause();\n  }\n\n/// @notice unpauses the contract. \n/// @dev Inherits _unpause() function from Pausable.sol and the onlyOwner modifier from Ownable.sol\n    function unpause() public onlyOwner {\n      _unpause();\n  }\n\n/// @dev tokenURI should have prefix http, https, ipfs or ar. For example, use ar://xyz\n/// instead of https://arweave.net/xyz.  Emits Created with ID of NFT when completed.\n/// @param _tokenURI URI of the json file containing the metadata in JSON format.  Should conform to the ERC721 Metadata JSON Schema\n    function mint (string calldata _tokenURI, uint256 price, address payable owner) \n    external \n    whenNotPaused\n  {\n    _tokenIds.increment();\n    uint256 newTokenId = _tokenIds.current();\n    NftInfo storage newNftInfo = _nftInfo[newTokenId];\n    newNftInfo.price = price;\n    _safeMint(owner, newTokenId);\n    _setTokenURI (newTokenId, _tokenURI);\n  }\n  \n/// @notice The stored information for a given NFT\n/// @dev Throws if NFT with ID is not valid\n/// @param tokenId Id of the NFT\n/// @return URI of the NFT\n/// @return owner of the NFT\n    function getNftInfo (uint256 tokenId) external view returns (string memory URI, address owner, uint256 price) {\n    require(_exists(tokenId), \"NftInfo query for nonexistent tokenId\");\n    string memory _URI = super.tokenURI(tokenId);\n    return (_URI, ownerOf(tokenId), _nftInfo[tokenId].price);\n  } \n  \n/// @notice Sends ETH to NFT owner\n/// @dev Throws if ETH sent with contract is less than NFT price\n/// @param tokenId Id of the NFT to purchase\n  function purchaseNft(uint256 tokenId) external payable nonReentrant {\n    require(_exists(tokenId), \"purchaseNft query for nonexistent tokenId\");\n    require(msg.value >= _nftInfo[tokenId].price, \"Not enough Eth to purchase\");\n    require(!_nftInfo[tokenId].purchasedNfts[msg.sender], \"NFT already purchased\");\n\n    payable(ownerOf(tokenId)).transfer(msg.value);\n      _nftInfo[tokenId].purchasedNfts[msg.sender] = true;\n    emit NftPurchased(_nftInfo[tokenId].NftURI, msg.value);\n  }\n  \n/// @notice Revert the transaction if it's failing\n/// @dev `fallback` will fully revert the tx if there is no proper input or call\n    fallback() external {\n      revert();\n    }\n\n/// @notice The following functions are overrides required by Solidity.\n/// @notice Conforms to the ERC721 metadata extension - https://eips.ethereum.org/EIPS/eip-721\n    function tokenURI(uint256 tokenId) public view override(ERC721, ERC721URIStorage) returns (string memory) {\n      return super.tokenURI(tokenId);\n  }\n\n/// @notice As ERC721, ERC721Enumerable, and include _beforeTokenTransfer we need to override both.\n    function _beforeTokenTransfer(address from, address to, uint256 amount) internal whenNotPaused override(ERC721, ERC721Enumerable) {\n      super._beforeTokenTransfer(from, to, amount);\n  }\n\n  /// @notice As ERC721 and ERC721Enumerable include supportsInterface we need to override both.\n    function supportsInterface(bytes4 interfaceId) public view override(ERC721, ERC721Enumerable) returns (bool) {\n      return super.supportsInterface(interfaceId);\n  }\n\n  /// @notice As ERC721 and ERC721URIStorage include supportsInterface we need to override both.\n    function _burn(uint256 tokenId) internal whenNotPaused override (ERC721, ERC721URIStorage)  {\n      super._burn(tokenId);\n  }\n}",
  "sourcePath": "/Users/tylerwoolcott/Dev/second-test-fp/contracts/OpenAR.sol",
  "compiler": {
    "name": "solc",
    "version": "0.8.0+commit.c7dfd78e.Emscripten.clang"
  },
  "schemaVersion": "3.4.3",
  "updatedAt": "2021-11-26T20:57:30.138Z",
  "networkType": "ethereum",
  "devdoc": {
    "author": "Tyler Woolcott",
    "kind": "dev",
    "methods": {
      "approve(address,uint256)": {
        "details": "See {IERC721-approve}."
      },
      "balanceOf(address)": {
        "details": "See {IERC721-balanceOf}."
      },
      "burn(uint256)": {
        "details": "Burns `tokenId`. See {ERC721-_burn}. Requirements: - The caller must own `tokenId` or be an approved operator."
      },
      "getApproved(uint256)": {
        "details": "See {IERC721-getApproved}."
      },
      "getNftInfo(uint256)": {
        "details": "Throws if NFT with ID is not valid",
        "params": {
          "tokenId": "Id of the NFT"
        },
        "returns": {
          "URI": "of the NFT",
          "owner": "of the NFT"
        }
      },
      "isApprovedForAll(address,address)": {
        "details": "See {IERC721-isApprovedForAll}."
      },
      "mint(string,uint256,address)": {
        "details": "tokenURI should have prefix http, https, ipfs or ar. For example, use ar://xyz instead of https://arweave.net/xyz.  Emits Created with ID of NFT when completed.",
        "params": {
          "_tokenURI": "URI of the json file containing the metadata in JSON format.  Should conform to the ERC721 Metadata JSON Schema"
        }
      },
      "name()": {
        "details": "See {IERC721Metadata-name}."
      },
      "owner()": {
        "details": "Returns the address of the current owner."
      },
      "ownerOf(uint256)": {
        "details": "See {IERC721-ownerOf}."
      },
      "pause()": {
        "details": "Inherits _pause() function from Pausable.sol and the onlyOwner modifier from Ownable.sol"
      },
      "paused()": {
        "details": "Returns true if the contract is paused, and false otherwise."
      },
      "purchaseNft(uint256)": {
        "details": "Throws if ETH sent with contract is less than NFT price",
        "params": {
          "tokenId": "Id of the NFT to purchase"
        }
      },
      "renounceOwnership()": {
        "details": "Leaves the contract without owner. It will not be possible to call `onlyOwner` functions anymore. Can only be called by the current owner. NOTE: Renouncing ownership will leave the contract without an owner, thereby removing any functionality that is only available to the owner."
      },
      "safeTransferFrom(address,address,uint256)": {
        "details": "See {IERC721-safeTransferFrom}."
      },
      "safeTransferFrom(address,address,uint256,bytes)": {
        "details": "See {IERC721-safeTransferFrom}."
      },
      "setApprovalForAll(address,bool)": {
        "details": "See {IERC721-setApprovalForAll}."
      },
      "symbol()": {
        "details": "See {IERC721Metadata-symbol}."
      },
      "tokenByIndex(uint256)": {
        "details": "See {IERC721Enumerable-tokenByIndex}."
      },
      "tokenOfOwnerByIndex(address,uint256)": {
        "details": "See {IERC721Enumerable-tokenOfOwnerByIndex}."
      },
      "totalSupply()": {
        "details": "See {IERC721Enumerable-totalSupply}."
      },
      "transferFrom(address,address,uint256)": {
        "details": "See {IERC721-transferFrom}."
      },
      "transferOwnership(address)": {
        "details": "Transfers ownership of the contract to a new account (`newOwner`). Can only be called by the current owner."
      },
      "unpause()": {
        "details": "Inherits _unpause() function from Pausable.sol and the onlyOwner modifier from Ownable.sol"
      }
    },
    "title": "OpenAR Contract",
    "version": 1
  },
  "userdoc": {
    "kind": "user",
    "methods": {
      "getNftInfo(uint256)": {
        "notice": "The stored information for a given NFT"
      },
      "pause()": {
        "notice": "pauses the contract. "
      },
      "purchaseNft(uint256)": {
        "notice": "Sends ETH to NFT owner"
      },
      "supportsInterface(bytes4)": {
        "notice": "As ERC721 and ERC721Enumerable include supportsInterface we need to override both."
      },
      "tokenURI(uint256)": {
        "notice": "The following functions are overrides required by Solidity.Conforms to the ERC721 metadata extension - https://eips.ethereum.org/EIPS/eip-721"
      },
      "unpause()": {
        "notice": "unpauses the contract. "
      }
    },
    "notice": "You can use this contract to mint and transfer AR NFTs ",
    "version": 1
  }
}